{
  "_format": "hh-sol-artifact-1",
  "contractName": "EuroMouse",
  "sourceName": "contracts/EuroMouse.sol",
  "abi": [
    {
      "inputs": [
        {
          "internalType": "string",
          "name": "baseURI",
          "type": "string"
        }
      ],
      "stateMutability": "nonpayable",
      "type": "constructor"
    },
    {
      "anonymous": false,
      "inputs": [
        {
          "indexed": true,
          "internalType": "address",
          "name": "owner",
          "type": "address"
        },
        {
          "indexed": true,
          "internalType": "address",
          "name": "approved",
          "type": "address"
        },
        {
          "indexed": true,
          "internalType": "uint256",
          "name": "tokenId",
          "type": "uint256"
        }
      ],
      "name": "Approval",
      "type": "event"
    },
    {
      "anonymous": false,
      "inputs": [
        {
          "indexed": true,
          "internalType": "address",
          "name": "owner",
          "type": "address"
        },
        {
          "indexed": true,
          "internalType": "address",
          "name": "operator",
          "type": "address"
        },
        {
          "indexed": false,
          "internalType": "bool",
          "name": "approved",
          "type": "bool"
        }
      ],
      "name": "ApprovalForAll",
      "type": "event"
    },
    {
      "anonymous": false,
      "inputs": [
        {
          "indexed": true,
          "internalType": "address",
          "name": "previousOwner",
          "type": "address"
        },
        {
          "indexed": true,
          "internalType": "address",
          "name": "newOwner",
          "type": "address"
        }
      ],
      "name": "OwnershipTransferred",
      "type": "event"
    },
    {
      "anonymous": false,
      "inputs": [
        {
          "indexed": true,
          "internalType": "address",
          "name": "from",
          "type": "address"
        },
        {
          "indexed": true,
          "internalType": "address",
          "name": "to",
          "type": "address"
        },
        {
          "indexed": true,
          "internalType": "uint256",
          "name": "tokenId",
          "type": "uint256"
        }
      ],
      "name": "Transfer",
      "type": "event"
    },
    {
      "inputs": [
        {
          "internalType": "address",
          "name": "to",
          "type": "address"
        },
        {
          "internalType": "uint256",
          "name": "tokenId",
          "type": "uint256"
        }
      ],
      "name": "approve",
      "outputs": [],
      "stateMutability": "nonpayable",
      "type": "function"
    },
    {
      "inputs": [
        {
          "internalType": "address",
          "name": "owner",
          "type": "address"
        }
      ],
      "name": "balanceOf",
      "outputs": [
        {
          "internalType": "uint256",
          "name": "",
          "type": "uint256"
        }
      ],
      "stateMutability": "view",
      "type": "function"
    },
    {
      "inputs": [
        {
          "internalType": "uint256",
          "name": "tokenId",
          "type": "uint256"
        }
      ],
      "name": "getApproved",
      "outputs": [
        {
          "internalType": "address",
          "name": "",
          "type": "address"
        }
      ],
      "stateMutability": "view",
      "type": "function"
    },
    {
      "inputs": [
        {
          "internalType": "address",
          "name": "owner",
          "type": "address"
        },
        {
          "internalType": "address",
          "name": "operator",
          "type": "address"
        }
      ],
      "name": "isApprovedForAll",
      "outputs": [
        {
          "internalType": "bool",
          "name": "",
          "type": "bool"
        }
      ],
      "stateMutability": "view",
      "type": "function"
    },
    {
      "inputs": [],
      "name": "isMintEnabled",
      "outputs": [
        {
          "internalType": "bool",
          "name": "",
          "type": "bool"
        }
      ],
      "stateMutability": "view",
      "type": "function"
    },
    {
      "inputs": [],
      "name": "maxSupply",
      "outputs": [
        {
          "internalType": "uint256",
          "name": "",
          "type": "uint256"
        }
      ],
      "stateMutability": "view",
      "type": "function"
    },
    {
      "inputs": [
        {
          "internalType": "address",
          "name": "_receiver",
          "type": "address"
        },
        {
          "internalType": "uint256",
          "name": "tID",
          "type": "uint256"
        }
      ],
      "name": "mint",
      "outputs": [],
      "stateMutability": "nonpayable",
      "type": "function"
    },
    {
      "inputs": [],
      "name": "name",
      "outputs": [
        {
          "internalType": "string",
          "name": "",
          "type": "string"
        }
      ],
      "stateMutability": "view",
      "type": "function"
    },
    {
      "inputs": [],
      "name": "owner",
      "outputs": [
        {
          "internalType": "address",
          "name": "",
          "type": "address"
        }
      ],
      "stateMutability": "view",
      "type": "function"
    },
    {
      "inputs": [
        {
          "internalType": "uint256",
          "name": "tokenId",
          "type": "uint256"
        }
      ],
      "name": "ownerOf",
      "outputs": [
        {
          "internalType": "address",
          "name": "",
          "type": "address"
        }
      ],
      "stateMutability": "view",
      "type": "function"
    },
    {
      "inputs": [],
      "name": "renounceOwnership",
      "outputs": [],
      "stateMutability": "nonpayable",
      "type": "function"
    },
    {
      "inputs": [
        {
          "internalType": "address",
          "name": "from",
          "type": "address"
        },
        {
          "internalType": "address",
          "name": "to",
          "type": "address"
        },
        {
          "internalType": "uint256",
          "name": "tokenId",
          "type": "uint256"
        }
      ],
      "name": "safeTransferFrom",
      "outputs": [],
      "stateMutability": "nonpayable",
      "type": "function"
    },
    {
      "inputs": [
        {
          "internalType": "address",
          "name": "from",
          "type": "address"
        },
        {
          "internalType": "address",
          "name": "to",
          "type": "address"
        },
        {
          "internalType": "uint256",
          "name": "tokenId",
          "type": "uint256"
        },
        {
          "internalType": "bytes",
          "name": "_data",
          "type": "bytes"
        }
      ],
      "name": "safeTransferFrom",
      "outputs": [],
      "stateMutability": "nonpayable",
      "type": "function"
    },
    {
      "inputs": [
        {
          "internalType": "address",
          "name": "operator",
          "type": "address"
        },
        {
          "internalType": "bool",
          "name": "approved",
          "type": "bool"
        }
      ],
      "name": "setApprovalForAll",
      "outputs": [],
      "stateMutability": "nonpayable",
      "type": "function"
    },
    {
      "inputs": [
        {
          "internalType": "string",
          "name": "_baseTokenURI",
          "type": "string"
        }
      ],
      "name": "setBaseURI",
      "outputs": [],
      "stateMutability": "nonpayable",
      "type": "function"
    },
    {
      "inputs": [
        {
          "internalType": "uint256",
          "name": "maxSupply_",
          "type": "uint256"
        }
      ],
      "name": "setMaxSupply",
      "outputs": [],
      "stateMutability": "nonpayable",
      "type": "function"
    },
    {
      "inputs": [
        {
          "internalType": "bytes4",
          "name": "interfaceId",
          "type": "bytes4"
        }
      ],
      "name": "supportsInterface",
      "outputs": [
        {
          "internalType": "bool",
          "name": "",
          "type": "bool"
        }
      ],
      "stateMutability": "view",
      "type": "function"
    },
    {
      "inputs": [],
      "name": "symbol",
      "outputs": [
        {
          "internalType": "string",
          "name": "",
          "type": "string"
        }
      ],
      "stateMutability": "view",
      "type": "function"
    },
    {
      "inputs": [],
      "name": "toggleIsMintEnabled",
      "outputs": [],
      "stateMutability": "nonpayable",
      "type": "function"
    },
    {
      "inputs": [
        {
          "internalType": "uint256",
          "name": "index",
          "type": "uint256"
        }
      ],
      "name": "tokenByIndex",
      "outputs": [
        {
          "internalType": "uint256",
          "name": "",
          "type": "uint256"
        }
      ],
      "stateMutability": "view",
      "type": "function"
    },
    {
      "inputs": [],
      "name": "tokenId",
      "outputs": [
        {
          "internalType": "uint256",
          "name": "",
          "type": "uint256"
        }
      ],
      "stateMutability": "view",
      "type": "function"
    },
    {
      "inputs": [
        {
          "internalType": "address",
          "name": "owner",
          "type": "address"
        },
        {
          "internalType": "uint256",
          "name": "index",
          "type": "uint256"
        }
      ],
      "name": "tokenOfOwnerByIndex",
      "outputs": [
        {
          "internalType": "uint256",
          "name": "",
          "type": "uint256"
        }
      ],
      "stateMutability": "view",
      "type": "function"
    },
    {
      "inputs": [
        {
          "internalType": "uint256",
          "name": "tokenId",
          "type": "uint256"
        }
      ],
      "name": "tokenURI",
      "outputs": [
        {
          "internalType": "string",
          "name": "",
          "type": "string"
        }
      ],
      "stateMutability": "view",
      "type": "function"
    },
    {
      "inputs": [],
      "name": "totalSupply",
      "outputs": [
        {
          "internalType": "uint256",
          "name": "",
          "type": "uint256"
        }
      ],
      "stateMutability": "view",
      "type": "function"
    },
    {
      "inputs": [
        {
          "internalType": "address",
          "name": "from",
          "type": "address"
        },
        {
          "internalType": "address",
          "name": "to",
          "type": "address"
        },
        {
          "internalType": "uint256",
          "name": "tokenId",
          "type": "uint256"
        }
      ],
      "name": "transferFrom",
      "outputs": [],
      "stateMutability": "nonpayable",
      "type": "function"
    },
    {
      "inputs": [
        {
          "internalType": "address",
          "name": "newOwner",
          "type": "address"
        }
      ],
      "name": "transferOwnership",
      "outputs": [],
      "stateMutability": "nonpayable",
      "type": "function"
    }
  ],
  "bytecode": "0x60806040526001600b556014600c553480156200001b57600080fd5b5060405162004004380380620040048339818101604052810190620000419190620003de565b6040518060400160405280601b81526020017f452d4d6f757365202d2048616c6c6f7765656e205370656369616c00000000008152506040518060400160405280600781526020017f45554d4f555345000000000000000000000000000000000000000000000000008152508160009080519060200190620000c5929190620002bc565b508060019080519060200190620000de929190620002bc565b50505062000101620000f56200011960201b60201c565b6200012160201b60201c565b6200011281620001e760201b60201c565b5062000616565b600033905090565b6000600a60009054906101000a900473ffffffffffffffffffffffffffffffffffffffff16905081600a60006101000a81548173ffffffffffffffffffffffffffffffffffffffff021916908373ffffffffffffffffffffffffffffffffffffffff1602179055508173ffffffffffffffffffffffffffffffffffffffff168173ffffffffffffffffffffffffffffffffffffffff167f8be0079c531659141344cd1fd0a4f28419497f9722a3daafe3b4186f6b6457e060405160405180910390a35050565b620001f76200011960201b60201c565b73ffffffffffffffffffffffffffffffffffffffff166200021d6200029260201b60201c565b73ffffffffffffffffffffffffffffffffffffffff161462000276576040517f08c379a00000000000000000000000000000000000000000000000000000000081526004016200026d906200044a565b60405180910390fd5b80600e90805190602001906200028e929190620002bc565b5050565b6000600a60009054906101000a900473ffffffffffffffffffffffffffffffffffffffff16905090565b828054620002ca9062000512565b90600052602060002090601f016020900481019282620002ee57600085556200033a565b82601f106200030957805160ff19168380011785556200033a565b828001600101855582156200033a579182015b82811115620003395782518255916020019190600101906200031c565b5b5090506200034991906200034d565b5090565b5b80821115620003685760008160009055506001016200034e565b5090565b6000620003836200037d8462000495565b6200046c565b9050828152602081018484840111156200039c57600080fd5b620003a9848285620004dc565b509392505050565b600082601f830112620003c357600080fd5b8151620003d58482602086016200036c565b91505092915050565b600060208284031215620003f157600080fd5b600082015167ffffffffffffffff8111156200040c57600080fd5b6200041a84828501620003b1565b91505092915050565b600062000432602083620004cb565b91506200043f82620005ed565b602082019050919050565b60006020820190508181036000830152620004658162000423565b9050919050565b6000620004786200048b565b905062000486828262000548565b919050565b6000604051905090565b600067ffffffffffffffff821115620004b357620004b2620005ad565b5b620004be82620005dc565b9050602081019050919050565b600082825260208201905092915050565b60005b83811015620004fc578082015181840152602081019050620004df565b838111156200050c576000848401525b50505050565b600060028204905060018216806200052b57607f821691505b602082108114156200054257620005416200057e565b5b50919050565b6200055382620005dc565b810181811067ffffffffffffffff82111715620005755762000574620005ad565b5b80604052505050565b7f4e487b7100000000000000000000000000000000000000000000000000000000600052602260045260246000fd5b7f4e487b7100000000000000000000000000000000000000000000000000000000600052604160045260246000fd5b6000601f19601f8301169050919050565b7f4f776e61626c653a2063616c6c6572206973206e6f7420746865206f776e6572600082015250565b6139de80620006266000396000f3fe608060405234801561001057600080fd5b506004361061018e5760003560e01c80636352211e116100de578063a22cb46511610097578063c87b56dd11610071578063c87b56dd1461045b578063d5abeb011461048b578063e985e9c5146104a9578063f2fde38b146104d95761018e565b8063a22cb46514610419578063b88d4fde14610435578063c4073217146104515761018e565b80636352211e146103575780636f8b44b01461038757806370a08231146103a3578063715018a6146103d35780638da5cb5b146103dd57806395d89b41146103fb5761018e565b806323b872dd1161014b57806340c10f191161012557806340c10f19146102d357806342842e0e146102ef5780634f6ccce71461030b57806355f804b31461033b5761018e565b806323b872dd146102695780632f745c5914610285578063346de50a146102b55761018e565b806301ffc9a71461019357806306fdde03146101c3578063081812fc146101e1578063095ea7b31461021157806317d70f7c1461022d57806318160ddd1461024b575b600080fd5b6101ad60048036038101906101a89190612874565b6104f5565b6040516101ba9190612d47565b60405180910390f35b6101cb61056f565b6040516101d89190612d62565b60405180910390f35b6101fb60048036038101906101f69190612907565b610601565b6040516102089190612ce0565b60405180910390f35b61022b60048036038101906102269190612838565b610686565b005b61023561079e565b6040516102429190613004565b60405180910390f35b6102536107a4565b6040516102609190613004565b60405180910390f35b610283600480360381019061027e9190612732565b6107b1565b005b61029f600480360381019061029a9190612838565b610811565b6040516102ac9190613004565b60405180910390f35b6102bd6108b6565b6040516102ca9190612d47565b60405180910390f35b6102ed60048036038101906102e89190612838565b6108c9565b005b61030960048036038101906103049190612732565b6109e8565b005b61032560048036038101906103209190612907565b610a08565b6040516103329190613004565b60405180910390f35b610355600480360381019061035091906128c6565b610a9f565b005b610371600480360381019061036c9190612907565b610b35565b60405161037e9190612ce0565b60405180910390f35b6103a1600480360381019061039c9190612907565b610be7565b005b6103bd60048036038101906103b891906126cd565b610c6d565b6040516103ca9190613004565b60405180910390f35b6103db610d25565b005b6103e5610dad565b6040516103f29190612ce0565b60405180910390f35b610403610dd7565b6040516104109190612d62565b60405180910390f35b610433600480360381019061042e91906127fc565b610e69565b005b61044f600480360381019061044a9190612781565b610e7f565b005b610459610ee1565b005b61047560048036038101906104709190612907565b610f89565b6040516104829190612d62565b60405180910390f35b610493611030565b6040516104a09190613004565b60405180910390f35b6104c360048036038101906104be91906126f6565b611036565b6040516104d09190612d47565b60405180910390f35b6104f360048036038101906104ee91906126cd565b6110ca565b005b60007f780e9d63000000000000000000000000000000000000000000000000000000007bffffffffffffffffffffffffffffffffffffffffffffffffffffffff1916827bffffffffffffffffffffffffffffffffffffffffffffffffffffffff191614806105685750610567826111c2565b5b9050919050565b60606000805461057e9061325a565b80601f01602080910402602001604051908101604052809291908181526020018280546105aa9061325a565b80156105f75780601f106105cc576101008083540402835291602001916105f7565b820191906000526020600020905b8154815290600101906020018083116105da57829003601f168201915b5050505050905090565b600061060c826112a4565b61064b576040517f08c379a000000000000000000000000000000000000000000000000000000000815260040161064290612f44565b60405180910390fd5b6004600083815260200190815260200160002060009054906101000a900473ffffffffffffffffffffffffffffffffffffffff169050919050565b600061069182610b35565b90508073ffffffffffffffffffffffffffffffffffffffff168373ffffffffffffffffffffffffffffffffffffffff161415610702576040517f08c379a00000000000000000000000000000000000000000000000000000000081526004016106f990612fa4565b60405180910390fd5b8073ffffffffffffffffffffffffffffffffffffffff16610721611310565b73ffffffffffffffffffffffffffffffffffffffff161480610750575061074f8161074a611310565b611036565b5b61078f576040517f08c379a000000000000000000000000000000000000000000000000000000000815260040161078690612ec4565b60405180910390fd5b6107998383611318565b505050565b600b5481565b6000600880549050905090565b6107c26107bc611310565b826113d1565b610801576040517f08c379a00000000000000000000000000000000000000000000000000000000081526004016107f890612fc4565b60405180910390fd5b61080c8383836114af565b505050565b600061081c83610c6d565b821061085d576040517f08c379a000000000000000000000000000000000000000000000000000000000815260040161085490612d84565b60405180910390fd5b600660008473ffffffffffffffffffffffffffffffffffffffff1673ffffffffffffffffffffffffffffffffffffffff168152602001908152602001600020600083815260200190815260200160002054905092915050565b600d60009054906101000a900460ff1681565b6108d1611310565b73ffffffffffffffffffffffffffffffffffffffff166108ef610dad565b73ffffffffffffffffffffffffffffffffffffffff1614610945576040517f08c379a000000000000000000000000000000000000000000000000000000000815260040161093c90612f64565b60405180910390fd5b600d60009054906101000a900460ff16610994576040517f08c379a000000000000000000000000000000000000000000000000000000000815260040161098b90612dc4565b60405180910390fd5b600c54600b54106109da576040517f08c379a00000000000000000000000000000000000000000000000000000000081526004016109d190612e84565b60405180910390fd5b6109e48282611716565b5050565b610a0383838360405180602001604052806000815250610e7f565b505050565b6000610a126107a4565b8210610a53576040517f08c379a0000000000000000000000000000000000000000000000000000000008152600401610a4a90612fe4565b60405180910390fd5b60088281548110610a8d577f4e487b7100000000000000000000000000000000000000000000000000000000600052603260045260246000fd5b90600052602060002001549050919050565b610aa7611310565b73ffffffffffffffffffffffffffffffffffffffff16610ac5610dad565b73ffffffffffffffffffffffffffffffffffffffff1614610b1b576040517f08c379a0000000000000000000000000000000000000000000000000000000008152600401610b1290612f64565b60405180910390fd5b80600e9080519060200190610b319291906124f1565b5050565b6000806002600084815260200190815260200160002060009054906101000a900473ffffffffffffffffffffffffffffffffffffffff169050600073ffffffffffffffffffffffffffffffffffffffff168173ffffffffffffffffffffffffffffffffffffffff161415610bde576040517f08c379a0000000000000000000000000000000000000000000000000000000008152600401610bd590612f04565b60405180910390fd5b80915050919050565b610bef611310565b73ffffffffffffffffffffffffffffffffffffffff16610c0d610dad565b73ffffffffffffffffffffffffffffffffffffffff1614610c63576040517f08c379a0000000000000000000000000000000000000000000000000000000008152600401610c5a90612f64565b60405180910390fd5b80600c8190555050565b60008073ffffffffffffffffffffffffffffffffffffffff168273ffffffffffffffffffffffffffffffffffffffff161415610cde576040517f08c379a0000000000000000000000000000000000000000000000000000000008152600401610cd590612ee4565b60405180910390fd5b600360008373ffffffffffffffffffffffffffffffffffffffff1673ffffffffffffffffffffffffffffffffffffffff168152602001908152602001600020549050919050565b610d2d611310565b73ffffffffffffffffffffffffffffffffffffffff16610d4b610dad565b73ffffffffffffffffffffffffffffffffffffffff1614610da1576040517f08c379a0000000000000000000000000000000000000000000000000000000008152600401610d9890612f64565b60405180910390fd5b610dab6000611734565b565b6000600a60009054906101000a900473ffffffffffffffffffffffffffffffffffffffff16905090565b606060018054610de69061325a565b80601f0160208091040260200160405190810160405280929190818152602001828054610e129061325a565b8015610e5f5780601f10610e3457610100808354040283529160200191610e5f565b820191906000526020600020905b815481529060010190602001808311610e4257829003601f168201915b5050505050905090565b610e7b610e74611310565b83836117fa565b5050565b610e90610e8a611310565b836113d1565b610ecf576040517f08c379a0000000000000000000000000000000000000000000000000000000008152600401610ec690612fc4565b60405180910390fd5b610edb84848484611967565b50505050565b610ee9611310565b73ffffffffffffffffffffffffffffffffffffffff16610f07610dad565b73ffffffffffffffffffffffffffffffffffffffff1614610f5d576040517f08c379a0000000000000000000000000000000000000000000000000000000008152600401610f5490612f64565b60405180910390fd5b600d60009054906101000a900460ff1615600d60006101000a81548160ff021916908315150217905550565b6060610f94826112a4565b610fd3576040517f08c379a0000000000000000000000000000000000000000000000000000000008152600401610fca90612f84565b60405180910390fd5b6000610fdd6119c3565b90506000815111610ffd5760405180602001604052806000815250611028565b8061100784611a55565b604051602001611018929190612cbc565b6040516020818303038152906040525b915050919050565b600c5481565b6000600560008473ffffffffffffffffffffffffffffffffffffffff1673ffffffffffffffffffffffffffffffffffffffff16815260200190815260200160002060008373ffffffffffffffffffffffffffffffffffffffff1673ffffffffffffffffffffffffffffffffffffffff16815260200190815260200160002060009054906101000a900460ff16905092915050565b6110d2611310565b73ffffffffffffffffffffffffffffffffffffffff166110f0610dad565b73ffffffffffffffffffffffffffffffffffffffff1614611146576040517f08c379a000000000000000000000000000000000000000000000000000000000815260040161113d90612f64565b60405180910390fd5b600073ffffffffffffffffffffffffffffffffffffffff168173ffffffffffffffffffffffffffffffffffffffff1614156111b6576040517f08c379a00000000000000000000000000000000000000000000000000000000081526004016111ad90612de4565b60405180910390fd5b6111bf81611734565b50565b60007f80ac58cd000000000000000000000000000000000000000000000000000000007bffffffffffffffffffffffffffffffffffffffffffffffffffffffff1916827bffffffffffffffffffffffffffffffffffffffffffffffffffffffff1916148061128d57507f5b5e139f000000000000000000000000000000000000000000000000000000007bffffffffffffffffffffffffffffffffffffffffffffffffffffffff1916827bffffffffffffffffffffffffffffffffffffffffffffffffffffffff1916145b8061129d575061129c82611c02565b5b9050919050565b60008073ffffffffffffffffffffffffffffffffffffffff166002600084815260200190815260200160002060009054906101000a900473ffffffffffffffffffffffffffffffffffffffff1673ffffffffffffffffffffffffffffffffffffffff1614159050919050565b600033905090565b816004600083815260200190815260200160002060006101000a81548173ffffffffffffffffffffffffffffffffffffffff021916908373ffffffffffffffffffffffffffffffffffffffff160217905550808273ffffffffffffffffffffffffffffffffffffffff1661138b83610b35565b73ffffffffffffffffffffffffffffffffffffffff167f8c5be1e5ebec7d5bd14f71427d1e84f3dd0314c0f7b2291e5b200ac8c7c3b92560405160405180910390a45050565b60006113dc826112a4565b61141b576040517f08c379a000000000000000000000000000000000000000000000000000000000815260040161141290612ea4565b60405180910390fd5b600061142683610b35565b90508073ffffffffffffffffffffffffffffffffffffffff168473ffffffffffffffffffffffffffffffffffffffff16148061149557508373ffffffffffffffffffffffffffffffffffffffff1661147d84610601565b73ffffffffffffffffffffffffffffffffffffffff16145b806114a657506114a58185611036565b5b91505092915050565b8273ffffffffffffffffffffffffffffffffffffffff166114cf82610b35565b73ffffffffffffffffffffffffffffffffffffffff1614611525576040517f08c379a000000000000000000000000000000000000000000000000000000000815260040161151c90612e04565b60405180910390fd5b600073ffffffffffffffffffffffffffffffffffffffff168273ffffffffffffffffffffffffffffffffffffffff161415611595576040517f08c379a000000000000000000000000000000000000000000000000000000000815260040161158c90612e44565b60405180910390fd5b6115a0838383611c6c565b6115ab600082611318565b6001600360008573ffffffffffffffffffffffffffffffffffffffff1673ffffffffffffffffffffffffffffffffffffffff16815260200190815260200160002060008282546115fb9190613170565b925050819055506001600360008473ffffffffffffffffffffffffffffffffffffffff1673ffffffffffffffffffffffffffffffffffffffff168152602001908152602001600020600082825461165291906130e9565b92505081905550816002600083815260200190815260200160002060006101000a81548173ffffffffffffffffffffffffffffffffffffffff021916908373ffffffffffffffffffffffffffffffffffffffff160217905550808273ffffffffffffffffffffffffffffffffffffffff168473ffffffffffffffffffffffffffffffffffffffff167fddf252ad1be2c89b69c2b068fc378daa952ba7f163c4a11628f55a4df523b3ef60405160405180910390a4611711838383611d80565b505050565b611730828260405180602001604052806000815250611d85565b5050565b6000600a60009054906101000a900473ffffffffffffffffffffffffffffffffffffffff16905081600a60006101000a81548173ffffffffffffffffffffffffffffffffffffffff021916908373ffffffffffffffffffffffffffffffffffffffff1602179055508173ffffffffffffffffffffffffffffffffffffffff168173ffffffffffffffffffffffffffffffffffffffff167f8be0079c531659141344cd1fd0a4f28419497f9722a3daafe3b4186f6b6457e060405160405180910390a35050565b8173ffffffffffffffffffffffffffffffffffffffff168373ffffffffffffffffffffffffffffffffffffffff161415611869576040517f08c379a000000000000000000000000000000000000000000000000000000000815260040161186090612e64565b60405180910390fd5b80600560008573ffffffffffffffffffffffffffffffffffffffff1673ffffffffffffffffffffffffffffffffffffffff16815260200190815260200160002060008473ffffffffffffffffffffffffffffffffffffffff1673ffffffffffffffffffffffffffffffffffffffff16815260200190815260200160002060006101000a81548160ff0219169083151502179055508173ffffffffffffffffffffffffffffffffffffffff168373ffffffffffffffffffffffffffffffffffffffff167f17307eab39ab6107e8899845ad3d59bd9653f200f220920489ca2b5937696c318360405161195a9190612d47565b60405180910390a3505050565b6119728484846114af565b61197e84848484611de0565b6119bd576040517f08c379a00000000000000000000000000000000000000000000000000000000081526004016119b490612da4565b60405180910390fd5b50505050565b6060600e80546119d29061325a565b80601f01602080910402602001604051908101604052809291908181526020018280546119fe9061325a565b8015611a4b5780601f10611a2057610100808354040283529160200191611a4b565b820191906000526020600020905b815481529060010190602001808311611a2e57829003601f168201915b5050505050905090565b60606000821415611a9d576040518060400160405280600181526020017f30000000000000000000000000000000000000000000000000000000000000008152509050611bfd565b600082905060005b60008214611acf578080611ab8906132bd565b915050600a82611ac8919061313f565b9150611aa5565b60008167ffffffffffffffff811115611b11577f4e487b7100000000000000000000000000000000000000000000000000000000600052604160045260246000fd5b6040519080825280601f01601f191660200182016040528015611b435781602001600182028036833780820191505090505b5090505b60008514611bf657600182611b5c9190613170565b9150600a85611b6b9190613306565b6030611b7791906130e9565b60f81b818381518110611bb3577f4e487b7100000000000000000000000000000000000000000000000000000000600052603260045260246000fd5b60200101907effffffffffffffffffffffffffffffffffffffffffffffffffffffffffffff1916908160001a905350600a85611bef919061313f565b9450611b47565b8093505050505b919050565b60007f01ffc9a7000000000000000000000000000000000000000000000000000000007bffffffffffffffffffffffffffffffffffffffffffffffffffffffff1916827bffffffffffffffffffffffffffffffffffffffffffffffffffffffff1916149050919050565b611c77838383611f77565b600073ffffffffffffffffffffffffffffffffffffffff168373ffffffffffffffffffffffffffffffffffffffff161415611cba57611cb581611f7c565b611cf9565b8173ffffffffffffffffffffffffffffffffffffffff168373ffffffffffffffffffffffffffffffffffffffff1614611cf857611cf78382611fc5565b5b5b600073ffffffffffffffffffffffffffffffffffffffff168273ffffffffffffffffffffffffffffffffffffffff161415611d3c57611d3781612132565b611d7b565b8273ffffffffffffffffffffffffffffffffffffffff168273ffffffffffffffffffffffffffffffffffffffff1614611d7a57611d798282612275565b5b5b505050565b505050565b611d8f83836122f4565b611d9c6000848484611de0565b611ddb576040517f08c379a0000000000000000000000000000000000000000000000000000000008152600401611dd290612da4565b60405180910390fd5b505050565b6000611e018473ffffffffffffffffffffffffffffffffffffffff166124ce565b15611f6a578373ffffffffffffffffffffffffffffffffffffffff1663150b7a02611e2a611310565b8786866040518563ffffffff1660e01b8152600401611e4c9493929190612cfb565b602060405180830381600087803b158015611e6657600080fd5b505af1925050508015611e9757506040513d601f19601f82011682018060405250810190611e94919061289d565b60015b611f1a573d8060008114611ec7576040519150601f19603f3d011682016040523d82523d6000602084013e611ecc565b606091505b50600081511415611f12576040517f08c379a0000000000000000000000000000000000000000000000000000000008152600401611f0990612da4565b60405180910390fd5b805181602001fd5b63150b7a0260e01b7bffffffffffffffffffffffffffffffffffffffffffffffffffffffff1916817bffffffffffffffffffffffffffffffffffffffffffffffffffffffff191614915050611f6f565b600190505b949350505050565b505050565b6008805490506009600083815260200190815260200160002081905550600881908060018154018082558091505060019003906000526020600020016000909190919091505550565b60006001611fd284610c6d565b611fdc9190613170565b90506000600760008481526020019081526020016000205490508181146120c1576000600660008673ffffffffffffffffffffffffffffffffffffffff1673ffffffffffffffffffffffffffffffffffffffff168152602001908152602001600020600084815260200190815260200160002054905080600660008773ffffffffffffffffffffffffffffffffffffffff1673ffffffffffffffffffffffffffffffffffffffff168152602001908152602001600020600084815260200190815260200160002081905550816007600083815260200190815260200160002081905550505b6007600084815260200190815260200160002060009055600660008573ffffffffffffffffffffffffffffffffffffffff1673ffffffffffffffffffffffffffffffffffffffff16815260200190815260200160002060008381526020019081526020016000206000905550505050565b600060016008805490506121469190613170565b905060006009600084815260200190815260200160002054905060006008838154811061219c577f4e487b7100000000000000000000000000000000000000000000000000000000600052603260045260246000fd5b9060005260206000200154905080600883815481106121e4577f4e487b7100000000000000000000000000000000000000000000000000000000600052603260045260246000fd5b906000526020600020018190555081600960008381526020019081526020016000208190555060096000858152602001908152602001600020600090556008805480612259577f4e487b7100000000000000000000000000000000000000000000000000000000600052603160045260246000fd5b6001900381819060005260206000200160009055905550505050565b600061228083610c6d565b905081600660008573ffffffffffffffffffffffffffffffffffffffff1673ffffffffffffffffffffffffffffffffffffffff168152602001908152602001600020600083815260200190815260200160002081905550806007600084815260200190815260200160002081905550505050565b600073ffffffffffffffffffffffffffffffffffffffff168273ffffffffffffffffffffffffffffffffffffffff161415612364576040517f08c379a000000000000000000000000000000000000000000000000000000000815260040161235b90612f24565b60405180910390fd5b61236d816112a4565b156123ad576040517f08c379a00000000000000000000000000000000000000000000000000000000081526004016123a490612e24565b60405180910390fd5b6123b960008383611c6c565b6001600360008473ffffffffffffffffffffffffffffffffffffffff1673ffffffffffffffffffffffffffffffffffffffff168152602001908152602001600020600082825461240991906130e9565b92505081905550816002600083815260200190815260200160002060006101000a81548173ffffffffffffffffffffffffffffffffffffffff021916908373ffffffffffffffffffffffffffffffffffffffff160217905550808273ffffffffffffffffffffffffffffffffffffffff16600073ffffffffffffffffffffffffffffffffffffffff167fddf252ad1be2c89b69c2b068fc378daa952ba7f163c4a11628f55a4df523b3ef60405160405180910390a46124ca60008383611d80565b5050565b6000808273ffffffffffffffffffffffffffffffffffffffff163b119050919050565b8280546124fd9061325a565b90600052602060002090601f01602090048101928261251f5760008555612566565b82601f1061253857805160ff1916838001178555612566565b82800160010185558215612566579182015b8281111561256557825182559160200191906001019061254a565b5b5090506125739190612577565b5090565b5b80821115612590576000816000905550600101612578565b5090565b60006125a76125a284613044565b61301f565b9050828152602081018484840111156125bf57600080fd5b6125ca848285613218565b509392505050565b60006125e56125e084613075565b61301f565b9050828152602081018484840111156125fd57600080fd5b612608848285613218565b509392505050565b60008135905061261f8161394c565b92915050565b60008135905061263481613963565b92915050565b6000813590506126498161397a565b92915050565b60008151905061265e8161397a565b92915050565b600082601f83011261267557600080fd5b8135612685848260208601612594565b91505092915050565b600082601f83011261269f57600080fd5b81356126af8482602086016125d2565b91505092915050565b6000813590506126c781613991565b92915050565b6000602082840312156126df57600080fd5b60006126ed84828501612610565b91505092915050565b6000806040838503121561270957600080fd5b600061271785828601612610565b925050602061272885828601612610565b9150509250929050565b60008060006060848603121561274757600080fd5b600061275586828701612610565b935050602061276686828701612610565b9250506040612777868287016126b8565b9150509250925092565b6000806000806080858703121561279757600080fd5b60006127a587828801612610565b94505060206127b687828801612610565b93505060406127c7878288016126b8565b925050606085013567ffffffffffffffff8111156127e457600080fd5b6127f087828801612664565b91505092959194509250565b6000806040838503121561280f57600080fd5b600061281d85828601612610565b925050602061282e85828601612625565b9150509250929050565b6000806040838503121561284b57600080fd5b600061285985828601612610565b925050602061286a858286016126b8565b9150509250929050565b60006020828403121561288657600080fd5b60006128948482850161263a565b91505092915050565b6000602082840312156128af57600080fd5b60006128bd8482850161264f565b91505092915050565b6000602082840312156128d857600080fd5b600082013567ffffffffffffffff8111156128f257600080fd5b6128fe8482850161268e565b91505092915050565b60006020828403121561291957600080fd5b6000612927848285016126b8565b91505092915050565b612939816131a4565b82525050565b612948816131b6565b82525050565b6000612959826130a6565b61296381856130bc565b9350612973818560208601613227565b61297c816133f3565b840191505092915050565b6000612992826130b1565b61299c81856130cd565b93506129ac818560208601613227565b6129b5816133f3565b840191505092915050565b60006129cb826130b1565b6129d581856130de565b93506129e5818560208601613227565b80840191505092915050565b60006129fe602b836130cd565b9150612a0982613404565b604082019050919050565b6000612a216032836130cd565b9150612a2c82613453565b604082019050919050565b6000612a446013836130cd565b9150612a4f826134a2565b602082019050919050565b6000612a676026836130cd565b9150612a72826134cb565b604082019050919050565b6000612a8a6025836130cd565b9150612a958261351a565b604082019050919050565b6000612aad601c836130cd565b9150612ab882613569565b602082019050919050565b6000612ad06024836130cd565b9150612adb82613592565b604082019050919050565b6000612af36019836130cd565b9150612afe826135e1565b602082019050919050565b6000612b16600c836130cd565b9150612b218261360a565b602082019050919050565b6000612b39602c836130cd565b9150612b4482613633565b604082019050919050565b6000612b5c6038836130cd565b9150612b6782613682565b604082019050919050565b6000612b7f602a836130cd565b9150612b8a826136d1565b604082019050919050565b6000612ba26029836130cd565b9150612bad82613720565b604082019050919050565b6000612bc56020836130cd565b9150612bd08261376f565b602082019050919050565b6000612be8602c836130cd565b9150612bf382613798565b604082019050919050565b6000612c0b6020836130cd565b9150612c16826137e7565b602082019050919050565b6000612c2e602f836130cd565b9150612c3982613810565b604082019050919050565b6000612c516021836130cd565b9150612c5c8261385f565b604082019050919050565b6000612c746031836130cd565b9150612c7f826138ae565b604082019050919050565b6000612c97602c836130cd565b9150612ca2826138fd565b604082019050919050565b612cb68161320e565b82525050565b6000612cc882856129c0565b9150612cd482846129c0565b91508190509392505050565b6000602082019050612cf56000830184612930565b92915050565b6000608082019050612d106000830187612930565b612d1d6020830186612930565b612d2a6040830185612cad565b8181036060830152612d3c818461294e565b905095945050505050565b6000602082019050612d5c600083018461293f565b92915050565b60006020820190508181036000830152612d7c8184612987565b905092915050565b60006020820190508181036000830152612d9d816129f1565b9050919050565b60006020820190508181036000830152612dbd81612a14565b9050919050565b60006020820190508181036000830152612ddd81612a37565b9050919050565b60006020820190508181036000830152612dfd81612a5a565b9050919050565b60006020820190508181036000830152612e1d81612a7d565b9050919050565b60006020820190508181036000830152612e3d81612aa0565b9050919050565b60006020820190508181036000830152612e5d81612ac3565b9050919050565b60006020820190508181036000830152612e7d81612ae6565b9050919050565b60006020820190508181036000830152612e9d81612b09565b9050919050565b60006020820190508181036000830152612ebd81612b2c565b9050919050565b60006020820190508181036000830152612edd81612b4f565b9050919050565b60006020820190508181036000830152612efd81612b72565b9050919050565b60006020820190508181036000830152612f1d81612b95565b9050919050565b60006020820190508181036000830152612f3d81612bb8565b9050919050565b60006020820190508181036000830152612f5d81612bdb565b9050919050565b60006020820190508181036000830152612f7d81612bfe565b9050919050565b60006020820190508181036000830152612f9d81612c21565b9050919050565b60006020820190508181036000830152612fbd81612c44565b9050919050565b60006020820190508181036000830152612fdd81612c67565b9050919050565b60006020820190508181036000830152612ffd81612c8a565b9050919050565b60006020820190506130196000830184612cad565b92915050565b600061302961303a565b9050613035828261328c565b919050565b6000604051905090565b600067ffffffffffffffff82111561305f5761305e6133c4565b5b613068826133f3565b9050602081019050919050565b600067ffffffffffffffff8211156130905761308f6133c4565b5b613099826133f3565b9050602081019050919050565b600081519050919050565b600081519050919050565b600082825260208201905092915050565b600082825260208201905092915050565b600081905092915050565b60006130f48261320e565b91506130ff8361320e565b9250827fffffffffffffffffffffffffffffffffffffffffffffffffffffffffffffffff0382111561313457613133613337565b5b828201905092915050565b600061314a8261320e565b91506131558361320e565b92508261316557613164613366565b5b828204905092915050565b600061317b8261320e565b91506131868361320e565b92508282101561319957613198613337565b5b828203905092915050565b60006131af826131ee565b9050919050565b60008115159050919050565b60007fffffffff0000000000000000000000000000000000000000000000000000000082169050919050565b600073ffffffffffffffffffffffffffffffffffffffff82169050919050565b6000819050919050565b82818337600083830152505050565b60005b8381101561324557808201518184015260208101905061322a565b83811115613254576000848401525b50505050565b6000600282049050600182168061327257607f821691505b6020821081141561328657613285613395565b5b50919050565b613295826133f3565b810181811067ffffffffffffffff821117156132b4576132b36133c4565b5b80604052505050565b60006132c88261320e565b91507fffffffffffffffffffffffffffffffffffffffffffffffffffffffffffffffff8214156132fb576132fa613337565b5b600182019050919050565b60006133118261320e565b915061331c8361320e565b92508261332c5761332b613366565b5b828206905092915050565b7f4e487b7100000000000000000000000000000000000000000000000000000000600052601160045260246000fd5b7f4e487b7100000000000000000000000000000000000000000000000000000000600052601260045260246000fd5b7f4e487b7100000000000000000000000000000000000000000000000000000000600052602260045260246000fd5b7f4e487b7100000000000000000000000000000000000000000000000000000000600052604160045260246000fd5b6000601f19601f8301169050919050565b7f455243373231456e756d657261626c653a206f776e657220696e646578206f7560008201527f74206f6620626f756e6473000000000000000000000000000000000000000000602082015250565b7f4552433732313a207472616e7366657220746f206e6f6e20455243373231526560008201527f63656976657220696d706c656d656e7465720000000000000000000000000000602082015250565b7f6d696e74696e67206e6f7420656e61626c656400000000000000000000000000600082015250565b7f4f776e61626c653a206e6577206f776e657220697320746865207a65726f206160008201527f6464726573730000000000000000000000000000000000000000000000000000602082015250565b7f4552433732313a207472616e736665722066726f6d20696e636f72726563742060008201527f6f776e6572000000000000000000000000000000000000000000000000000000602082015250565b7f4552433732313a20746f6b656e20616c7265616479206d696e74656400000000600082015250565b7f4552433732313a207472616e7366657220746f20746865207a65726f2061646460008201527f7265737300000000000000000000000000000000000000000000000000000000602082015250565b7f4552433732313a20617070726f766520746f2063616c6c657200000000000000600082015250565b7f6f7574206f662072616e67650000000000000000000000000000000000000000600082015250565b7f4552433732313a206f70657261746f7220717565727920666f72206e6f6e657860008201527f697374656e7420746f6b656e0000000000000000000000000000000000000000602082015250565b7f4552433732313a20617070726f76652063616c6c6572206973206e6f74206f7760008201527f6e6572206e6f7220617070726f76656420666f7220616c6c0000000000000000602082015250565b7f4552433732313a2062616c616e636520717565727920666f7220746865207a6560008201527f726f206164647265737300000000000000000000000000000000000000000000602082015250565b7f4552433732313a206f776e657220717565727920666f72206e6f6e657869737460008201527f656e7420746f6b656e0000000000000000000000000000000000000000000000602082015250565b7f4552433732313a206d696e7420746f20746865207a65726f2061646472657373600082015250565b7f4552433732313a20617070726f76656420717565727920666f72206e6f6e657860008201527f697374656e7420746f6b656e0000000000000000000000000000000000000000602082015250565b7f4f776e61626c653a2063616c6c6572206973206e6f7420746865206f776e6572600082015250565b7f4552433732314d657461646174613a2055524920717565727920666f72206e6f60008201527f6e6578697374656e7420746f6b656e0000000000000000000000000000000000602082015250565b7f4552433732313a20617070726f76616c20746f2063757272656e74206f776e6560008201527f7200000000000000000000000000000000000000000000000000000000000000602082015250565b7f4552433732313a207472616e736665722063616c6c6572206973206e6f74206f60008201527f776e6572206e6f7220617070726f766564000000000000000000000000000000602082015250565b7f455243373231456e756d657261626c653a20676c6f62616c20696e646578206f60008201527f7574206f6620626f756e64730000000000000000000000000000000000000000602082015250565b613955816131a4565b811461396057600080fd5b50565b61396c816131b6565b811461397757600080fd5b50565b613983816131c2565b811461398e57600080fd5b50565b61399a8161320e565b81146139a557600080fd5b5056fea2646970667358221220f3d8da6e61afade1c95ee80b2a15c440a5dbda26a721bcc3cd6f3d343664917d64736f6c63430008040033",
  "linkReferences": {},
  "deployedLinkReferences": {}
}