{
  "_format": "hh-sol-artifact-1",
  "contractName": "EuroMouse",
  "sourceName": "contracts/EuroMouse.sol",
  "abi": [
    {
      "inputs": [
        {
          "internalType": "string",
          "name": "baseURI",
          "type": "string"
        }
      ],
      "stateMutability": "nonpayable",
      "type": "constructor"
    },
    {
      "anonymous": false,
      "inputs": [
        {
          "indexed": true,
          "internalType": "address",
          "name": "owner",
          "type": "address"
        },
        {
          "indexed": true,
          "internalType": "address",
          "name": "approved",
          "type": "address"
        },
        {
          "indexed": true,
          "internalType": "uint256",
          "name": "tokenId",
          "type": "uint256"
        }
      ],
      "name": "Approval",
      "type": "event"
    },
    {
      "anonymous": false,
      "inputs": [
        {
          "indexed": true,
          "internalType": "address",
          "name": "owner",
          "type": "address"
        },
        {
          "indexed": true,
          "internalType": "address",
          "name": "operator",
          "type": "address"
        },
        {
          "indexed": false,
          "internalType": "bool",
          "name": "approved",
          "type": "bool"
        }
      ],
      "name": "ApprovalForAll",
      "type": "event"
    },
    {
      "anonymous": false,
      "inputs": [
        {
          "indexed": true,
          "internalType": "address",
          "name": "previousOwner",
          "type": "address"
        },
        {
          "indexed": true,
          "internalType": "address",
          "name": "newOwner",
          "type": "address"
        }
      ],
      "name": "OwnershipTransferred",
      "type": "event"
    },
    {
      "anonymous": false,
      "inputs": [
        {
          "indexed": true,
          "internalType": "address",
          "name": "from",
          "type": "address"
        },
        {
          "indexed": true,
          "internalType": "address",
          "name": "to",
          "type": "address"
        },
        {
          "indexed": true,
          "internalType": "uint256",
          "name": "tokenId",
          "type": "uint256"
        }
      ],
      "name": "Transfer",
      "type": "event"
    },
    {
      "inputs": [
        {
          "internalType": "address",
          "name": "to",
          "type": "address"
        },
        {
          "internalType": "uint256",
          "name": "tokenId",
          "type": "uint256"
        }
      ],
      "name": "approve",
      "outputs": [],
      "stateMutability": "nonpayable",
      "type": "function"
    },
    {
      "inputs": [
        {
          "internalType": "address",
          "name": "owner",
          "type": "address"
        }
      ],
      "name": "balanceOf",
      "outputs": [
        {
          "internalType": "uint256",
          "name": "",
          "type": "uint256"
        }
      ],
      "stateMutability": "view",
      "type": "function"
    },
    {
      "inputs": [
        {
          "internalType": "uint256",
          "name": "tokenId",
          "type": "uint256"
        }
      ],
      "name": "getApproved",
      "outputs": [
        {
          "internalType": "address",
          "name": "",
          "type": "address"
        }
      ],
      "stateMutability": "view",
      "type": "function"
    },
    {
      "inputs": [
        {
          "internalType": "address",
          "name": "owner",
          "type": "address"
        },
        {
          "internalType": "address",
          "name": "operator",
          "type": "address"
        }
      ],
      "name": "isApprovedForAll",
      "outputs": [
        {
          "internalType": "bool",
          "name": "",
          "type": "bool"
        }
      ],
      "stateMutability": "view",
      "type": "function"
    },
    {
      "inputs": [],
      "name": "isMintEnabled",
      "outputs": [
        {
          "internalType": "bool",
          "name": "",
          "type": "bool"
        }
      ],
      "stateMutability": "view",
      "type": "function"
    },
    {
      "inputs": [],
      "name": "maxSupply",
      "outputs": [
        {
          "internalType": "uint256",
          "name": "",
          "type": "uint256"
        }
      ],
      "stateMutability": "view",
      "type": "function"
    },
    {
      "inputs": [
        {
          "internalType": "address",
          "name": "_receiver",
          "type": "address"
        },
        {
          "internalType": "uint256",
          "name": "tID",
          "type": "uint256"
        }
      ],
      "name": "mint",
      "outputs": [],
      "stateMutability": "nonpayable",
      "type": "function"
    },
    {
      "inputs": [],
      "name": "name",
      "outputs": [
        {
          "internalType": "string",
          "name": "",
          "type": "string"
        }
      ],
      "stateMutability": "view",
      "type": "function"
    },
    {
      "inputs": [],
      "name": "owner",
      "outputs": [
        {
          "internalType": "address",
          "name": "",
          "type": "address"
        }
      ],
      "stateMutability": "view",
      "type": "function"
    },
    {
      "inputs": [
        {
          "internalType": "uint256",
          "name": "tokenId",
          "type": "uint256"
        }
      ],
      "name": "ownerOf",
      "outputs": [
        {
          "internalType": "address",
          "name": "",
          "type": "address"
        }
      ],
      "stateMutability": "view",
      "type": "function"
    },
    {
      "inputs": [],
      "name": "renounceOwnership",
      "outputs": [],
      "stateMutability": "nonpayable",
      "type": "function"
    },
    {
      "inputs": [
        {
          "internalType": "address",
          "name": "from",
          "type": "address"
        },
        {
          "internalType": "address",
          "name": "to",
          "type": "address"
        },
        {
          "internalType": "uint256",
          "name": "tokenId",
          "type": "uint256"
        }
      ],
      "name": "safeTransferFrom",
      "outputs": [],
      "stateMutability": "nonpayable",
      "type": "function"
    },
    {
      "inputs": [
        {
          "internalType": "address",
          "name": "from",
          "type": "address"
        },
        {
          "internalType": "address",
          "name": "to",
          "type": "address"
        },
        {
          "internalType": "uint256",
          "name": "tokenId",
          "type": "uint256"
        },
        {
          "internalType": "bytes",
          "name": "_data",
          "type": "bytes"
        }
      ],
      "name": "safeTransferFrom",
      "outputs": [],
      "stateMutability": "nonpayable",
      "type": "function"
    },
    {
      "inputs": [
        {
          "internalType": "address",
          "name": "operator",
          "type": "address"
        },
        {
          "internalType": "bool",
          "name": "approved",
          "type": "bool"
        }
      ],
      "name": "setApprovalForAll",
      "outputs": [],
      "stateMutability": "nonpayable",
      "type": "function"
    },
    {
      "inputs": [
        {
          "internalType": "string",
          "name": "_baseTokenURI",
          "type": "string"
        }
      ],
      "name": "setBaseURI",
      "outputs": [],
      "stateMutability": "nonpayable",
      "type": "function"
    },
    {
      "inputs": [
        {
          "internalType": "uint256",
          "name": "maxSupply_",
          "type": "uint256"
        }
      ],
      "name": "setMaxSupply",
      "outputs": [],
      "stateMutability": "nonpayable",
      "type": "function"
    },
    {
      "inputs": [
        {
          "internalType": "bytes4",
          "name": "interfaceId",
          "type": "bytes4"
        }
      ],
      "name": "supportsInterface",
      "outputs": [
        {
          "internalType": "bool",
          "name": "",
          "type": "bool"
        }
      ],
      "stateMutability": "view",
      "type": "function"
    },
    {
      "inputs": [],
      "name": "symbol",
      "outputs": [
        {
          "internalType": "string",
          "name": "",
          "type": "string"
        }
      ],
      "stateMutability": "view",
      "type": "function"
    },
    {
      "inputs": [],
      "name": "toggleIsMintEnabled",
      "outputs": [],
      "stateMutability": "nonpayable",
      "type": "function"
    },
    {
      "inputs": [],
      "name": "tokenId",
      "outputs": [
        {
          "internalType": "uint256",
          "name": "",
          "type": "uint256"
        }
      ],
      "stateMutability": "view",
      "type": "function"
    },
    {
      "inputs": [
        {
          "internalType": "uint256",
          "name": "tokenId",
          "type": "uint256"
        }
      ],
      "name": "tokenURI",
      "outputs": [
        {
          "internalType": "string",
          "name": "",
          "type": "string"
        }
      ],
      "stateMutability": "view",
      "type": "function"
    },
    {
      "inputs": [
        {
          "internalType": "address",
          "name": "from",
          "type": "address"
        },
        {
          "internalType": "address",
          "name": "to",
          "type": "address"
        },
        {
          "internalType": "uint256",
          "name": "tokenId",
          "type": "uint256"
        }
      ],
      "name": "transferFrom",
      "outputs": [],
      "stateMutability": "nonpayable",
      "type": "function"
    },
    {
      "inputs": [
        {
          "internalType": "address",
          "name": "newOwner",
          "type": "address"
        }
      ],
      "name": "transferOwnership",
      "outputs": [],
      "stateMutability": "nonpayable",
      "type": "function"
    }
  ],
  "bytecode": "0x608060405260656008553480156200001657600080fd5b506040516200384a3803806200384a83398181016040528101906200003c9190620004e8565b60405180606001604052806035815260200162003815603591396040518060400160405280600781526020017f45554d4f555345000000000000000000000000000000000000000000000000008152508160009080519060200190620000a49291906200029b565b508060019080519060200190620000bd9291906200029b565b505050620000e0620000d4620000f860201b60201c565b6200010060201b60201c565b620000f181620001c660201b60201c565b5062000621565b600033905090565b6000600660009054906101000a900473ffffffffffffffffffffffffffffffffffffffff16905081600660006101000a81548173ffffffffffffffffffffffffffffffffffffffff021916908373ffffffffffffffffffffffffffffffffffffffff1602179055508173ffffffffffffffffffffffffffffffffffffffff168173ffffffffffffffffffffffffffffffffffffffff167f8be0079c531659141344cd1fd0a4f28419497f9722a3daafe3b4186f6b6457e060405160405180910390a35050565b620001d6620000f860201b60201c565b73ffffffffffffffffffffffffffffffffffffffff16620001fc6200027160201b60201c565b73ffffffffffffffffffffffffffffffffffffffff161462000255576040517f08c379a00000000000000000000000000000000000000000000000000000000081526004016200024c906200059a565b60405180910390fd5b80600a90805190602001906200026d9291906200029b565b5050565b6000600660009054906101000a900473ffffffffffffffffffffffffffffffffffffffff16905090565b828054620002a990620005eb565b90600052602060002090601f016020900481019282620002cd576000855562000319565b82601f10620002e857805160ff191683800117855562000319565b8280016001018555821562000319579182015b8281111562000318578251825591602001919060010190620002fb565b5b5090506200032891906200032c565b5090565b5b80821115620003475760008160009055506001016200032d565b5090565b6000604051905090565b600080fd5b600080fd5b600080fd5b600080fd5b6000601f19601f8301169050919050565b7f4e487b7100000000000000000000000000000000000000000000000000000000600052604160045260246000fd5b620003b48262000369565b810181811067ffffffffffffffff82111715620003d657620003d56200037a565b5b80604052505050565b6000620003eb6200034b565b9050620003f98282620003a9565b919050565b600067ffffffffffffffff8211156200041c576200041b6200037a565b5b620004278262000369565b9050602081019050919050565b60005b838110156200045457808201518184015260208101905062000437565b8381111562000464576000848401525b50505050565b6000620004816200047b84620003fe565b620003df565b905082815260208101848484011115620004a0576200049f62000364565b5b620004ad84828562000434565b509392505050565b600082601f830112620004cd57620004cc6200035f565b5b8151620004df8482602086016200046a565b91505092915050565b60006020828403121562000501576200050062000355565b5b600082015167ffffffffffffffff8111156200052257620005216200035a565b5b6200053084828501620004b5565b91505092915050565b600082825260208201905092915050565b7f4f776e61626c653a2063616c6c6572206973206e6f7420746865206f776e6572600082015250565b60006200058260208362000539565b91506200058f826200054a565b602082019050919050565b60006020820190508181036000830152620005b58162000573565b9050919050565b7f4e487b7100000000000000000000000000000000000000000000000000000000600052602260045260246000fd5b600060028204905060018216806200060457607f821691505b602082108114156200061b576200061a620005bc565b5b50919050565b6131e480620006316000396000f3fe608060405234801561001057600080fd5b506004361061014d5760003560e01c80636f8b44b0116100c3578063b88d4fde1161007c578063b88d4fde14610376578063c407321714610392578063c87b56dd1461039c578063d5abeb01146103cc578063e985e9c5146103ea578063f2fde38b1461041a5761014d565b80636f8b44b0146102c857806370a08231146102e4578063715018a6146103145780638da5cb5b1461031e57806395d89b411461033c578063a22cb4651461035a5761014d565b806323b872dd1161011557806323b872dd1461020a578063346de50a1461022657806340c10f191461024457806342842e0e1461026057806355f804b31461027c5780636352211e146102985761014d565b806301ffc9a71461015257806306fdde0314610182578063081812fc146101a0578063095ea7b3146101d057806317d70f7c146101ec575b600080fd5b61016c60048036038101906101679190611ea7565b610436565b6040516101799190611eef565b60405180910390f35b61018a610518565b6040516101979190611fa3565b60405180910390f35b6101ba60048036038101906101b59190611ffb565b6105aa565b6040516101c79190612069565b60405180910390f35b6101ea60048036038101906101e591906120b0565b61062f565b005b6101f4610747565b60405161020191906120ff565b60405180910390f35b610224600480360381019061021f919061211a565b61074d565b005b61022e6107ad565b60405161023b9190611eef565b60405180910390f35b61025e600480360381019061025991906120b0565b6107c0565b005b61027a6004803603810190610275919061211a565b6108e0565b005b610296600480360381019061029191906122a2565b610900565b005b6102b260048036038101906102ad9190611ffb565b610996565b6040516102bf9190612069565b60405180910390f35b6102e260048036038101906102dd9190611ffb565b610a48565b005b6102fe60048036038101906102f991906122eb565b610ace565b60405161030b91906120ff565b60405180910390f35b61031c610b86565b005b610326610c0e565b6040516103339190612069565b60405180910390f35b610344610c38565b6040516103519190611fa3565b60405180910390f35b610374600480360381019061036f9190612344565b610cca565b005b610390600480360381019061038b9190612425565b610ce0565b005b61039a610d42565b005b6103b660048036038101906103b19190611ffb565b610dea565b6040516103c39190611fa3565b60405180910390f35b6103d4610e91565b6040516103e191906120ff565b60405180910390f35b61040460048036038101906103ff91906124a8565b610e97565b6040516104119190611eef565b60405180910390f35b610434600480360381019061042f91906122eb565b610f2b565b005b60007f80ac58cd000000000000000000000000000000000000000000000000000000007bffffffffffffffffffffffffffffffffffffffffffffffffffffffff1916827bffffffffffffffffffffffffffffffffffffffffffffffffffffffff1916148061050157507f5b5e139f000000000000000000000000000000000000000000000000000000007bffffffffffffffffffffffffffffffffffffffffffffffffffffffff1916827bffffffffffffffffffffffffffffffffffffffffffffffffffffffff1916145b80610511575061051082611023565b5b9050919050565b60606000805461052790612517565b80601f016020809104026020016040519081016040528092919081815260200182805461055390612517565b80156105a05780601f10610575576101008083540402835291602001916105a0565b820191906000526020600020905b81548152906001019060200180831161058357829003601f168201915b5050505050905090565b60006105b58261108d565b6105f4576040517f08c379a00000000000000000000000000000000000000000000000000000000081526004016105eb906125bb565b60405180910390fd5b6004600083815260200190815260200160002060009054906101000a900473ffffffffffffffffffffffffffffffffffffffff169050919050565b600061063a82610996565b90508073ffffffffffffffffffffffffffffffffffffffff168373ffffffffffffffffffffffffffffffffffffffff1614156106ab576040517f08c379a00000000000000000000000000000000000000000000000000000000081526004016106a29061264d565b60405180910390fd5b8073ffffffffffffffffffffffffffffffffffffffff166106ca6110f9565b73ffffffffffffffffffffffffffffffffffffffff1614806106f957506106f8816106f36110f9565b610e97565b5b610738576040517f08c379a000000000000000000000000000000000000000000000000000000000815260040161072f906126df565b60405180910390fd5b6107428383611101565b505050565b60075481565b61075e6107586110f9565b826111ba565b61079d576040517f08c379a000000000000000000000000000000000000000000000000000000000815260040161079490612771565b60405180910390fd5b6107a8838383611298565b505050565b600960009054906101000a900460ff1681565b6107c86110f9565b73ffffffffffffffffffffffffffffffffffffffff166107e6610c0e565b73ffffffffffffffffffffffffffffffffffffffff161461083c576040517f08c379a0000000000000000000000000000000000000000000000000000000008152600401610833906127dd565b60405180910390fd5b600960009054906101000a900460ff1661088b576040517f08c379a000000000000000000000000000000000000000000000000000000000815260040161088290612849565b60405180910390fd5b60085460075411156108d2576040517f08c379a00000000000000000000000000000000000000000000000000000000081526004016108c9906128b5565b60405180910390fd5b6108dc82826114ff565b5050565b6108fb83838360405180602001604052806000815250610ce0565b505050565b6109086110f9565b73ffffffffffffffffffffffffffffffffffffffff16610926610c0e565b73ffffffffffffffffffffffffffffffffffffffff161461097c576040517f08c379a0000000000000000000000000000000000000000000000000000000008152600401610973906127dd565b60405180910390fd5b80600a9080519060200190610992929190611d98565b5050565b6000806002600084815260200190815260200160002060009054906101000a900473ffffffffffffffffffffffffffffffffffffffff169050600073ffffffffffffffffffffffffffffffffffffffff168173ffffffffffffffffffffffffffffffffffffffff161415610a3f576040517f08c379a0000000000000000000000000000000000000000000000000000000008152600401610a3690612947565b60405180910390fd5b80915050919050565b610a506110f9565b73ffffffffffffffffffffffffffffffffffffffff16610a6e610c0e565b73ffffffffffffffffffffffffffffffffffffffff1614610ac4576040517f08c379a0000000000000000000000000000000000000000000000000000000008152600401610abb906127dd565b60405180910390fd5b8060088190555050565b60008073ffffffffffffffffffffffffffffffffffffffff168273ffffffffffffffffffffffffffffffffffffffff161415610b3f576040517f08c379a0000000000000000000000000000000000000000000000000000000008152600401610b36906129d9565b60405180910390fd5b600360008373ffffffffffffffffffffffffffffffffffffffff1673ffffffffffffffffffffffffffffffffffffffff168152602001908152602001600020549050919050565b610b8e6110f9565b73ffffffffffffffffffffffffffffffffffffffff16610bac610c0e565b73ffffffffffffffffffffffffffffffffffffffff1614610c02576040517f08c379a0000000000000000000000000000000000000000000000000000000008152600401610bf9906127dd565b60405180910390fd5b610c0c600061151d565b565b6000600660009054906101000a900473ffffffffffffffffffffffffffffffffffffffff16905090565b606060018054610c4790612517565b80601f0160208091040260200160405190810160405280929190818152602001828054610c7390612517565b8015610cc05780601f10610c9557610100808354040283529160200191610cc0565b820191906000526020600020905b815481529060010190602001808311610ca357829003601f168201915b5050505050905090565b610cdc610cd56110f9565b83836115e3565b5050565b610cf1610ceb6110f9565b836111ba565b610d30576040517f08c379a0000000000000000000000000000000000000000000000000000000008152600401610d2790612771565b60405180910390fd5b610d3c84848484611750565b50505050565b610d4a6110f9565b73ffffffffffffffffffffffffffffffffffffffff16610d68610c0e565b73ffffffffffffffffffffffffffffffffffffffff1614610dbe576040517f08c379a0000000000000000000000000000000000000000000000000000000008152600401610db5906127dd565b60405180910390fd5b600960009054906101000a900460ff1615600960006101000a81548160ff021916908315150217905550565b6060610df58261108d565b610e34576040517f08c379a0000000000000000000000000000000000000000000000000000000008152600401610e2b90612a6b565b60405180910390fd5b6000610e3e6117ac565b90506000815111610e5e5760405180602001604052806000815250610e89565b80610e688461183e565b604051602001610e79929190612ac7565b6040516020818303038152906040525b915050919050565b60085481565b6000600560008473ffffffffffffffffffffffffffffffffffffffff1673ffffffffffffffffffffffffffffffffffffffff16815260200190815260200160002060008373ffffffffffffffffffffffffffffffffffffffff1673ffffffffffffffffffffffffffffffffffffffff16815260200190815260200160002060009054906101000a900460ff16905092915050565b610f336110f9565b73ffffffffffffffffffffffffffffffffffffffff16610f51610c0e565b73ffffffffffffffffffffffffffffffffffffffff1614610fa7576040517f08c379a0000000000000000000000000000000000000000000000000000000008152600401610f9e906127dd565b60405180910390fd5b600073ffffffffffffffffffffffffffffffffffffffff168173ffffffffffffffffffffffffffffffffffffffff161415611017576040517f08c379a000000000000000000000000000000000000000000000000000000000815260040161100e90612b5d565b60405180910390fd5b6110208161151d565b50565b60007f01ffc9a7000000000000000000000000000000000000000000000000000000007bffffffffffffffffffffffffffffffffffffffffffffffffffffffff1916827bffffffffffffffffffffffffffffffffffffffffffffffffffffffff1916149050919050565b60008073ffffffffffffffffffffffffffffffffffffffff166002600084815260200190815260200160002060009054906101000a900473ffffffffffffffffffffffffffffffffffffffff1673ffffffffffffffffffffffffffffffffffffffff1614159050919050565b600033905090565b816004600083815260200190815260200160002060006101000a81548173ffffffffffffffffffffffffffffffffffffffff021916908373ffffffffffffffffffffffffffffffffffffffff160217905550808273ffffffffffffffffffffffffffffffffffffffff1661117483610996565b73ffffffffffffffffffffffffffffffffffffffff167f8c5be1e5ebec7d5bd14f71427d1e84f3dd0314c0f7b2291e5b200ac8c7c3b92560405160405180910390a45050565b60006111c58261108d565b611204576040517f08c379a00000000000000000000000000000000000000000000000000000000081526004016111fb90612bef565b60405180910390fd5b600061120f83610996565b90508073ffffffffffffffffffffffffffffffffffffffff168473ffffffffffffffffffffffffffffffffffffffff16148061125157506112508185610e97565b5b8061128f57508373ffffffffffffffffffffffffffffffffffffffff16611277846105aa565b73ffffffffffffffffffffffffffffffffffffffff16145b91505092915050565b8273ffffffffffffffffffffffffffffffffffffffff166112b882610996565b73ffffffffffffffffffffffffffffffffffffffff161461130e576040517f08c379a000000000000000000000000000000000000000000000000000000000815260040161130590612c81565b60405180910390fd5b600073ffffffffffffffffffffffffffffffffffffffff168273ffffffffffffffffffffffffffffffffffffffff16141561137e576040517f08c379a000000000000000000000000000000000000000000000000000000000815260040161137590612d13565b60405180910390fd5b61138983838361199f565b611394600082611101565b6001600360008573ffffffffffffffffffffffffffffffffffffffff1673ffffffffffffffffffffffffffffffffffffffff16815260200190815260200160002060008282546113e49190612d62565b925050819055506001600360008473ffffffffffffffffffffffffffffffffffffffff1673ffffffffffffffffffffffffffffffffffffffff168152602001908152602001600020600082825461143b9190612d96565b92505081905550816002600083815260200190815260200160002060006101000a81548173ffffffffffffffffffffffffffffffffffffffff021916908373ffffffffffffffffffffffffffffffffffffffff160217905550808273ffffffffffffffffffffffffffffffffffffffff168473ffffffffffffffffffffffffffffffffffffffff167fddf252ad1be2c89b69c2b068fc378daa952ba7f163c4a11628f55a4df523b3ef60405160405180910390a46114fa8383836119a4565b505050565b6115198282604051806020016040528060008152506119a9565b5050565b6000600660009054906101000a900473ffffffffffffffffffffffffffffffffffffffff16905081600660006101000a81548173ffffffffffffffffffffffffffffffffffffffff021916908373ffffffffffffffffffffffffffffffffffffffff1602179055508173ffffffffffffffffffffffffffffffffffffffff168173ffffffffffffffffffffffffffffffffffffffff167f8be0079c531659141344cd1fd0a4f28419497f9722a3daafe3b4186f6b6457e060405160405180910390a35050565b8173ffffffffffffffffffffffffffffffffffffffff168373ffffffffffffffffffffffffffffffffffffffff161415611652576040517f08c379a000000000000000000000000000000000000000000000000000000000815260040161164990612e38565b60405180910390fd5b80600560008573ffffffffffffffffffffffffffffffffffffffff1673ffffffffffffffffffffffffffffffffffffffff16815260200190815260200160002060008473ffffffffffffffffffffffffffffffffffffffff1673ffffffffffffffffffffffffffffffffffffffff16815260200190815260200160002060006101000a81548160ff0219169083151502179055508173ffffffffffffffffffffffffffffffffffffffff168373ffffffffffffffffffffffffffffffffffffffff167f17307eab39ab6107e8899845ad3d59bd9653f200f220920489ca2b5937696c31836040516117439190611eef565b60405180910390a3505050565b61175b848484611298565b61176784848484611a04565b6117a6576040517f08c379a000000000000000000000000000000000000000000000000000000000815260040161179d90612eca565b60405180910390fd5b50505050565b6060600a80546117bb90612517565b80601f01602080910402602001604051908101604052809291908181526020018280546117e790612517565b80156118345780601f1061180957610100808354040283529160200191611834565b820191906000526020600020905b81548152906001019060200180831161181757829003601f168201915b5050505050905090565b60606000821415611886576040518060400160405280600181526020017f3000000000000000000000000000000000000000000000000000000000000000815250905061199a565b600082905060005b600082146118b85780806118a190612eea565b915050600a826118b19190612f62565b915061188e565b60008167ffffffffffffffff8111156118d4576118d3612177565b5b6040519080825280601f01601f1916602001820160405280156119065781602001600182028036833780820191505090505b5090505b600085146119935760018261191f9190612d62565b9150600a8561192e9190612f93565b603061193a9190612d96565b60f81b8183815181106119505761194f612fc4565b5b60200101907effffffffffffffffffffffffffffffffffffffffffffffffffffffffffffff1916908160001a905350600a8561198c9190612f62565b945061190a565b8093505050505b919050565b505050565b505050565b6119b38383611b9b565b6119c06000848484611a04565b6119ff576040517f08c379a00000000000000000000000000000000000000000000000000000000081526004016119f690612eca565b60405180910390fd5b505050565b6000611a258473ffffffffffffffffffffffffffffffffffffffff16611d75565b15611b8e578373ffffffffffffffffffffffffffffffffffffffff1663150b7a02611a4e6110f9565b8786866040518563ffffffff1660e01b8152600401611a709493929190613048565b602060405180830381600087803b158015611a8a57600080fd5b505af1925050508015611abb57506040513d601f19601f82011682018060405250810190611ab891906130a9565b60015b611b3e573d8060008114611aeb576040519150601f19603f3d011682016040523d82523d6000602084013e611af0565b606091505b50600081511415611b36576040517f08c379a0000000000000000000000000000000000000000000000000000000008152600401611b2d90612eca565b60405180910390fd5b805181602001fd5b63150b7a0260e01b7bffffffffffffffffffffffffffffffffffffffffffffffffffffffff1916817bffffffffffffffffffffffffffffffffffffffffffffffffffffffff191614915050611b93565b600190505b949350505050565b600073ffffffffffffffffffffffffffffffffffffffff168273ffffffffffffffffffffffffffffffffffffffff161415611c0b576040517f08c379a0000000000000000000000000000000000000000000000000000000008152600401611c0290613122565b60405180910390fd5b611c148161108d565b15611c54576040517f08c379a0000000000000000000000000000000000000000000000000000000008152600401611c4b9061318e565b60405180910390fd5b611c606000838361199f565b6001600360008473ffffffffffffffffffffffffffffffffffffffff1673ffffffffffffffffffffffffffffffffffffffff1681526020019081526020016000206000828254611cb09190612d96565b92505081905550816002600083815260200190815260200160002060006101000a81548173ffffffffffffffffffffffffffffffffffffffff021916908373ffffffffffffffffffffffffffffffffffffffff160217905550808273ffffffffffffffffffffffffffffffffffffffff16600073ffffffffffffffffffffffffffffffffffffffff167fddf252ad1be2c89b69c2b068fc378daa952ba7f163c4a11628f55a4df523b3ef60405160405180910390a4611d71600083836119a4565b5050565b6000808273ffffffffffffffffffffffffffffffffffffffff163b119050919050565b828054611da490612517565b90600052602060002090601f016020900481019282611dc65760008555611e0d565b82601f10611ddf57805160ff1916838001178555611e0d565b82800160010185558215611e0d579182015b82811115611e0c578251825591602001919060010190611df1565b5b509050611e1a9190611e1e565b5090565b5b80821115611e37576000816000905550600101611e1f565b5090565b6000604051905090565b600080fd5b600080fd5b60007fffffffff0000000000000000000000000000000000000000000000000000000082169050919050565b611e8481611e4f565b8114611e8f57600080fd5b50565b600081359050611ea181611e7b565b92915050565b600060208284031215611ebd57611ebc611e45565b5b6000611ecb84828501611e92565b91505092915050565b60008115159050919050565b611ee981611ed4565b82525050565b6000602082019050611f046000830184611ee0565b92915050565b600081519050919050565b600082825260208201905092915050565b60005b83811015611f44578082015181840152602081019050611f29565b83811115611f53576000848401525b50505050565b6000601f19601f8301169050919050565b6000611f7582611f0a565b611f7f8185611f15565b9350611f8f818560208601611f26565b611f9881611f59565b840191505092915050565b60006020820190508181036000830152611fbd8184611f6a565b905092915050565b6000819050919050565b611fd881611fc5565b8114611fe357600080fd5b50565b600081359050611ff581611fcf565b92915050565b60006020828403121561201157612010611e45565b5b600061201f84828501611fe6565b91505092915050565b600073ffffffffffffffffffffffffffffffffffffffff82169050919050565b600061205382612028565b9050919050565b61206381612048565b82525050565b600060208201905061207e600083018461205a565b92915050565b61208d81612048565b811461209857600080fd5b50565b6000813590506120aa81612084565b92915050565b600080604083850312156120c7576120c6611e45565b5b60006120d58582860161209b565b92505060206120e685828601611fe6565b9150509250929050565b6120f981611fc5565b82525050565b600060208201905061211460008301846120f0565b92915050565b60008060006060848603121561213357612132611e45565b5b60006121418682870161209b565b93505060206121528682870161209b565b925050604061216386828701611fe6565b9150509250925092565b600080fd5b600080fd5b7f4e487b7100000000000000000000000000000000000000000000000000000000600052604160045260246000fd5b6121af82611f59565b810181811067ffffffffffffffff821117156121ce576121cd612177565b5b80604052505050565b60006121e1611e3b565b90506121ed82826121a6565b919050565b600067ffffffffffffffff82111561220d5761220c612177565b5b61221682611f59565b9050602081019050919050565b82818337600083830152505050565b6000612245612240846121f2565b6121d7565b90508281526020810184848401111561226157612260612172565b5b61226c848285612223565b509392505050565b600082601f8301126122895761228861216d565b5b8135612299848260208601612232565b91505092915050565b6000602082840312156122b8576122b7611e45565b5b600082013567ffffffffffffffff8111156122d6576122d5611e4a565b5b6122e284828501612274565b91505092915050565b60006020828403121561230157612300611e45565b5b600061230f8482850161209b565b91505092915050565b61232181611ed4565b811461232c57600080fd5b50565b60008135905061233e81612318565b92915050565b6000806040838503121561235b5761235a611e45565b5b60006123698582860161209b565b925050602061237a8582860161232f565b9150509250929050565b600067ffffffffffffffff82111561239f5761239e612177565b5b6123a882611f59565b9050602081019050919050565b60006123c86123c384612384565b6121d7565b9050828152602081018484840111156123e4576123e3612172565b5b6123ef848285612223565b509392505050565b600082601f83011261240c5761240b61216d565b5b813561241c8482602086016123b5565b91505092915050565b6000806000806080858703121561243f5761243e611e45565b5b600061244d8782880161209b565b945050602061245e8782880161209b565b935050604061246f87828801611fe6565b925050606085013567ffffffffffffffff8111156124905761248f611e4a565b5b61249c878288016123f7565b91505092959194509250565b600080604083850312156124bf576124be611e45565b5b60006124cd8582860161209b565b92505060206124de8582860161209b565b9150509250929050565b7f4e487b7100000000000000000000000000000000000000000000000000000000600052602260045260246000fd5b6000600282049050600182168061252f57607f821691505b60208210811415612543576125426124e8565b5b50919050565b7f4552433732313a20617070726f76656420717565727920666f72206e6f6e657860008201527f697374656e7420746f6b656e0000000000000000000000000000000000000000602082015250565b60006125a5602c83611f15565b91506125b082612549565b604082019050919050565b600060208201905081810360008301526125d481612598565b9050919050565b7f4552433732313a20617070726f76616c20746f2063757272656e74206f776e6560008201527f7200000000000000000000000000000000000000000000000000000000000000602082015250565b6000612637602183611f15565b9150612642826125db565b604082019050919050565b600060208201905081810360008301526126668161262a565b9050919050565b7f4552433732313a20617070726f76652063616c6c6572206973206e6f74206f7760008201527f6e6572206e6f7220617070726f76656420666f7220616c6c0000000000000000602082015250565b60006126c9603883611f15565b91506126d48261266d565b604082019050919050565b600060208201905081810360008301526126f8816126bc565b9050919050565b7f4552433732313a207472616e736665722063616c6c6572206973206e6f74206f60008201527f776e6572206e6f7220617070726f766564000000000000000000000000000000602082015250565b600061275b603183611f15565b9150612766826126ff565b604082019050919050565b6000602082019050818103600083015261278a8161274e565b9050919050565b7f4f776e61626c653a2063616c6c6572206973206e6f7420746865206f776e6572600082015250565b60006127c7602083611f15565b91506127d282612791565b602082019050919050565b600060208201905081810360008301526127f6816127ba565b9050919050565b7f6d696e74696e67206e6f7420656e61626c656400000000000000000000000000600082015250565b6000612833601383611f15565b915061283e826127fd565b602082019050919050565b6000602082019050818103600083015261286281612826565b9050919050565b7f6f7574206f662072616e67650000000000000000000000000000000000000000600082015250565b600061289f600c83611f15565b91506128aa82612869565b602082019050919050565b600060208201905081810360008301526128ce81612892565b9050919050565b7f4552433732313a206f776e657220717565727920666f72206e6f6e657869737460008201527f656e7420746f6b656e0000000000000000000000000000000000000000000000602082015250565b6000612931602983611f15565b915061293c826128d5565b604082019050919050565b6000602082019050818103600083015261296081612924565b9050919050565b7f4552433732313a2062616c616e636520717565727920666f7220746865207a6560008201527f726f206164647265737300000000000000000000000000000000000000000000602082015250565b60006129c3602a83611f15565b91506129ce82612967565b604082019050919050565b600060208201905081810360008301526129f2816129b6565b9050919050565b7f4552433732314d657461646174613a2055524920717565727920666f72206e6f60008201527f6e6578697374656e7420746f6b656e0000000000000000000000000000000000602082015250565b6000612a55602f83611f15565b9150612a60826129f9565b604082019050919050565b60006020820190508181036000830152612a8481612a48565b9050919050565b600081905092915050565b6000612aa182611f0a565b612aab8185612a8b565b9350612abb818560208601611f26565b80840191505092915050565b6000612ad38285612a96565b9150612adf8284612a96565b91508190509392505050565b7f4f776e61626c653a206e6577206f776e657220697320746865207a65726f206160008201527f6464726573730000000000000000000000000000000000000000000000000000602082015250565b6000612b47602683611f15565b9150612b5282612aeb565b604082019050919050565b60006020820190508181036000830152612b7681612b3a565b9050919050565b7f4552433732313a206f70657261746f7220717565727920666f72206e6f6e657860008201527f697374656e7420746f6b656e0000000000000000000000000000000000000000602082015250565b6000612bd9602c83611f15565b9150612be482612b7d565b604082019050919050565b60006020820190508181036000830152612c0881612bcc565b9050919050565b7f4552433732313a207472616e736665722066726f6d20696e636f72726563742060008201527f6f776e6572000000000000000000000000000000000000000000000000000000602082015250565b6000612c6b602583611f15565b9150612c7682612c0f565b604082019050919050565b60006020820190508181036000830152612c9a81612c5e565b9050919050565b7f4552433732313a207472616e7366657220746f20746865207a65726f2061646460008201527f7265737300000000000000000000000000000000000000000000000000000000602082015250565b6000612cfd602483611f15565b9150612d0882612ca1565b604082019050919050565b60006020820190508181036000830152612d2c81612cf0565b9050919050565b7f4e487b7100000000000000000000000000000000000000000000000000000000600052601160045260246000fd5b6000612d6d82611fc5565b9150612d7883611fc5565b925082821015612d8b57612d8a612d33565b5b828203905092915050565b6000612da182611fc5565b9150612dac83611fc5565b9250827fffffffffffffffffffffffffffffffffffffffffffffffffffffffffffffffff03821115612de157612de0612d33565b5b828201905092915050565b7f4552433732313a20617070726f766520746f2063616c6c657200000000000000600082015250565b6000612e22601983611f15565b9150612e2d82612dec565b602082019050919050565b60006020820190508181036000830152612e5181612e15565b9050919050565b7f4552433732313a207472616e7366657220746f206e6f6e20455243373231526560008201527f63656976657220696d706c656d656e7465720000000000000000000000000000602082015250565b6000612eb4603283611f15565b9150612ebf82612e58565b604082019050919050565b60006020820190508181036000830152612ee381612ea7565b9050919050565b6000612ef582611fc5565b91507fffffffffffffffffffffffffffffffffffffffffffffffffffffffffffffffff821415612f2857612f27612d33565b5b600182019050919050565b7f4e487b7100000000000000000000000000000000000000000000000000000000600052601260045260246000fd5b6000612f6d82611fc5565b9150612f7883611fc5565b925082612f8857612f87612f33565b5b828204905092915050565b6000612f9e82611fc5565b9150612fa983611fc5565b925082612fb957612fb8612f33565b5b828206905092915050565b7f4e487b7100000000000000000000000000000000000000000000000000000000600052603260045260246000fd5b600081519050919050565b600082825260208201905092915050565b600061301a82612ff3565b6130248185612ffe565b9350613034818560208601611f26565b61303d81611f59565b840191505092915050565b600060808201905061305d600083018761205a565b61306a602083018661205a565b61307760408301856120f0565b8181036060830152613089818461300f565b905095945050505050565b6000815190506130a381611e7b565b92915050565b6000602082840312156130bf576130be611e45565b5b60006130cd84828501613094565b91505092915050565b7f4552433732313a206d696e7420746f20746865207a65726f2061646472657373600082015250565b600061310c602083611f15565b9150613117826130d6565b602082019050919050565b6000602082019050818103600083015261313b816130ff565b9050919050565b7f4552433732313a20746f6b656e20616c7265616479206d696e74656400000000600082015250565b6000613178601c83611f15565b915061318382613142565b602082019050919050565b600060208201905081810360008301526131a78161316b565b905091905056fea26469706673582212204b5d0e2ba7d97b28a68bdc05d229e8b18a9f02ac83b939cb63c62fb790781d2364736f6c63430008090033426c6f636b636861696e204368616c6c656e6765203232202d204575726f4d6f7573652048616c6c6f7765656e2045646974696f6e",
  "linkReferences": {},
  "deployedLinkReferences": {}
}