{
  "_format": "hh-sol-artifact-1",
  "contractName": "EuroMouse",
  "sourceName": "contracts/EuroMouse.sol",
  "abi": [
    {
      "inputs": [
        {
          "internalType": "string",
          "name": "baseURI",
          "type": "string"
        }
      ],
      "stateMutability": "nonpayable",
      "type": "constructor"
    },
    {
      "anonymous": false,
      "inputs": [
        {
          "indexed": true,
          "internalType": "address",
          "name": "owner",
          "type": "address"
        },
        {
          "indexed": true,
          "internalType": "address",
          "name": "approved",
          "type": "address"
        },
        {
          "indexed": true,
          "internalType": "uint256",
          "name": "tokenId",
          "type": "uint256"
        }
      ],
      "name": "Approval",
      "type": "event"
    },
    {
      "anonymous": false,
      "inputs": [
        {
          "indexed": true,
          "internalType": "address",
          "name": "owner",
          "type": "address"
        },
        {
          "indexed": true,
          "internalType": "address",
          "name": "operator",
          "type": "address"
        },
        {
          "indexed": false,
          "internalType": "bool",
          "name": "approved",
          "type": "bool"
        }
      ],
      "name": "ApprovalForAll",
      "type": "event"
    },
    {
      "anonymous": false,
      "inputs": [
        {
          "indexed": true,
          "internalType": "address",
          "name": "previousOwner",
          "type": "address"
        },
        {
          "indexed": true,
          "internalType": "address",
          "name": "newOwner",
          "type": "address"
        }
      ],
      "name": "OwnershipTransferred",
      "type": "event"
    },
    {
      "anonymous": false,
      "inputs": [
        {
          "indexed": true,
          "internalType": "address",
          "name": "from",
          "type": "address"
        },
        {
          "indexed": true,
          "internalType": "address",
          "name": "to",
          "type": "address"
        },
        {
          "indexed": true,
          "internalType": "uint256",
          "name": "tokenId",
          "type": "uint256"
        }
      ],
      "name": "Transfer",
      "type": "event"
    },
    {
      "inputs": [
        {
          "internalType": "address",
          "name": "to",
          "type": "address"
        },
        {
          "internalType": "uint256",
          "name": "tokenId",
          "type": "uint256"
        }
      ],
      "name": "approve",
      "outputs": [],
      "stateMutability": "nonpayable",
      "type": "function"
    },
    {
      "inputs": [
        {
          "internalType": "address",
          "name": "owner",
          "type": "address"
        }
      ],
      "name": "balanceOf",
      "outputs": [
        {
          "internalType": "uint256",
          "name": "",
          "type": "uint256"
        }
      ],
      "stateMutability": "view",
      "type": "function"
    },
    {
      "inputs": [
        {
          "internalType": "uint256",
          "name": "tokenId",
          "type": "uint256"
        }
      ],
      "name": "getApproved",
      "outputs": [
        {
          "internalType": "address",
          "name": "",
          "type": "address"
        }
      ],
      "stateMutability": "view",
      "type": "function"
    },
    {
      "inputs": [
        {
          "internalType": "address",
          "name": "owner",
          "type": "address"
        },
        {
          "internalType": "address",
          "name": "operator",
          "type": "address"
        }
      ],
      "name": "isApprovedForAll",
      "outputs": [
        {
          "internalType": "bool",
          "name": "",
          "type": "bool"
        }
      ],
      "stateMutability": "view",
      "type": "function"
    },
    {
      "inputs": [],
      "name": "isMintEnabled",
      "outputs": [
        {
          "internalType": "bool",
          "name": "",
          "type": "bool"
        }
      ],
      "stateMutability": "view",
      "type": "function"
    },
    {
      "inputs": [],
      "name": "maxSupply",
      "outputs": [
        {
          "internalType": "uint256",
          "name": "",
          "type": "uint256"
        }
      ],
      "stateMutability": "view",
      "type": "function"
    },
    {
      "inputs": [
        {
          "internalType": "address",
          "name": "_receiver",
          "type": "address"
        },
        {
          "internalType": "uint256",
          "name": "tID",
          "type": "uint256"
        }
      ],
      "name": "mint",
      "outputs": [],
      "stateMutability": "nonpayable",
      "type": "function"
    },
    {
      "inputs": [],
      "name": "name",
      "outputs": [
        {
          "internalType": "string",
          "name": "",
          "type": "string"
        }
      ],
      "stateMutability": "view",
      "type": "function"
    },
    {
      "inputs": [],
      "name": "owner",
      "outputs": [
        {
          "internalType": "address",
          "name": "",
          "type": "address"
        }
      ],
      "stateMutability": "view",
      "type": "function"
    },
    {
      "inputs": [
        {
          "internalType": "uint256",
          "name": "tokenId",
          "type": "uint256"
        }
      ],
      "name": "ownerOf",
      "outputs": [
        {
          "internalType": "address",
          "name": "",
          "type": "address"
        }
      ],
      "stateMutability": "view",
      "type": "function"
    },
    {
      "inputs": [],
      "name": "renounceOwnership",
      "outputs": [],
      "stateMutability": "nonpayable",
      "type": "function"
    },
    {
      "inputs": [
        {
          "internalType": "address",
          "name": "from",
          "type": "address"
        },
        {
          "internalType": "address",
          "name": "to",
          "type": "address"
        },
        {
          "internalType": "uint256",
          "name": "tokenId",
          "type": "uint256"
        }
      ],
      "name": "safeTransferFrom",
      "outputs": [],
      "stateMutability": "nonpayable",
      "type": "function"
    },
    {
      "inputs": [
        {
          "internalType": "address",
          "name": "from",
          "type": "address"
        },
        {
          "internalType": "address",
          "name": "to",
          "type": "address"
        },
        {
          "internalType": "uint256",
          "name": "tokenId",
          "type": "uint256"
        },
        {
          "internalType": "bytes",
          "name": "_data",
          "type": "bytes"
        }
      ],
      "name": "safeTransferFrom",
      "outputs": [],
      "stateMutability": "nonpayable",
      "type": "function"
    },
    {
      "inputs": [
        {
          "internalType": "address",
          "name": "operator",
          "type": "address"
        },
        {
          "internalType": "bool",
          "name": "approved",
          "type": "bool"
        }
      ],
      "name": "setApprovalForAll",
      "outputs": [],
      "stateMutability": "nonpayable",
      "type": "function"
    },
    {
      "inputs": [
        {
          "internalType": "string",
          "name": "_baseTokenURI",
          "type": "string"
        }
      ],
      "name": "setBaseURI",
      "outputs": [],
      "stateMutability": "nonpayable",
      "type": "function"
    },
    {
      "inputs": [
        {
          "internalType": "uint256",
          "name": "maxSupply_",
          "type": "uint256"
        }
      ],
      "name": "setMaxSupply",
      "outputs": [],
      "stateMutability": "nonpayable",
      "type": "function"
    },
    {
      "inputs": [
        {
          "internalType": "bytes4",
          "name": "interfaceId",
          "type": "bytes4"
        }
      ],
      "name": "supportsInterface",
      "outputs": [
        {
          "internalType": "bool",
          "name": "",
          "type": "bool"
        }
      ],
      "stateMutability": "view",
      "type": "function"
    },
    {
      "inputs": [],
      "name": "symbol",
      "outputs": [
        {
          "internalType": "string",
          "name": "",
          "type": "string"
        }
      ],
      "stateMutability": "view",
      "type": "function"
    },
    {
      "inputs": [],
      "name": "toggleIsMintEnabled",
      "outputs": [],
      "stateMutability": "nonpayable",
      "type": "function"
    },
    {
      "inputs": [],
      "name": "tokenId",
      "outputs": [
        {
          "internalType": "uint256",
          "name": "",
          "type": "uint256"
        }
      ],
      "stateMutability": "view",
      "type": "function"
    },
    {
      "inputs": [
        {
          "internalType": "uint256",
          "name": "tokenId",
          "type": "uint256"
        }
      ],
      "name": "tokenURI",
      "outputs": [
        {
          "internalType": "string",
          "name": "",
          "type": "string"
        }
      ],
      "stateMutability": "view",
      "type": "function"
    },
    {
      "inputs": [
        {
          "internalType": "address",
          "name": "from",
          "type": "address"
        },
        {
          "internalType": "address",
          "name": "to",
          "type": "address"
        },
        {
          "internalType": "uint256",
          "name": "tokenId",
          "type": "uint256"
        }
      ],
      "name": "transferFrom",
      "outputs": [],
      "stateMutability": "nonpayable",
      "type": "function"
    },
    {
      "inputs": [
        {
          "internalType": "address",
          "name": "newOwner",
          "type": "address"
        }
      ],
      "name": "transferOwnership",
      "outputs": [],
      "stateMutability": "nonpayable",
      "type": "function"
    }
  ],
  "bytecode": "0x608060405260656008553480156200001657600080fd5b50604051620037e9380380620037e983398181016040528101906200003c9190620003bd565b604051806060016040528060378152602001620037b2603791396040518060400160405280600781526020017f45554d4f555345000000000000000000000000000000000000000000000000008152508160009080519060200190620000a49291906200029b565b508060019080519060200190620000bd9291906200029b565b505050620000e0620000d4620000f860201b60201c565b6200010060201b60201c565b620000f181620001c660201b60201c565b50620005f5565b600033905090565b6000600660009054906101000a900473ffffffffffffffffffffffffffffffffffffffff16905081600660006101000a81548173ffffffffffffffffffffffffffffffffffffffff021916908373ffffffffffffffffffffffffffffffffffffffff1602179055508173ffffffffffffffffffffffffffffffffffffffff168173ffffffffffffffffffffffffffffffffffffffff167f8be0079c531659141344cd1fd0a4f28419497f9722a3daafe3b4186f6b6457e060405160405180910390a35050565b620001d6620000f860201b60201c565b73ffffffffffffffffffffffffffffffffffffffff16620001fc6200027160201b60201c565b73ffffffffffffffffffffffffffffffffffffffff161462000255576040517f08c379a00000000000000000000000000000000000000000000000000000000081526004016200024c9062000429565b60405180910390fd5b80600a90805190602001906200026d9291906200029b565b5050565b6000600660009054906101000a900473ffffffffffffffffffffffffffffffffffffffff16905090565b828054620002a990620004f1565b90600052602060002090601f016020900481019282620002cd576000855562000319565b82601f10620002e857805160ff191683800117855562000319565b8280016001018555821562000319579182015b8281111562000318578251825591602001919060010190620002fb565b5b5090506200032891906200032c565b5090565b5b80821115620003475760008160009055506001016200032d565b5090565b6000620003626200035c8462000474565b6200044b565b9050828152602081018484840111156200037b57600080fd5b62000388848285620004bb565b509392505050565b600082601f830112620003a257600080fd5b8151620003b48482602086016200034b565b91505092915050565b600060208284031215620003d057600080fd5b600082015167ffffffffffffffff811115620003eb57600080fd5b620003f98482850162000390565b91505092915050565b600062000411602083620004aa565b91506200041e82620005cc565b602082019050919050565b60006020820190508181036000830152620004448162000402565b9050919050565b6000620004576200046a565b905062000465828262000527565b919050565b6000604051905090565b600067ffffffffffffffff8211156200049257620004916200058c565b5b6200049d82620005bb565b9050602081019050919050565b600082825260208201905092915050565b60005b83811015620004db578082015181840152602081019050620004be565b83811115620004eb576000848401525b50505050565b600060028204905060018216806200050a57607f821691505b602082108114156200052157620005206200055d565b5b50919050565b6200053282620005bb565b810181811067ffffffffffffffff821117156200055457620005536200058c565b5b80604052505050565b7f4e487b7100000000000000000000000000000000000000000000000000000000600052602260045260246000fd5b7f4e487b7100000000000000000000000000000000000000000000000000000000600052604160045260246000fd5b6000601f19601f8301169050919050565b7f4f776e61626c653a2063616c6c6572206973206e6f7420746865206f776e6572600082015250565b6131ad80620006056000396000f3fe608060405234801561001057600080fd5b506004361061014d5760003560e01c80636f8b44b0116100c3578063b88d4fde1161007c578063b88d4fde14610376578063c407321714610392578063c87b56dd1461039c578063d5abeb01146103cc578063e985e9c5146103ea578063f2fde38b1461041a5761014d565b80636f8b44b0146102c857806370a08231146102e4578063715018a6146103145780638da5cb5b1461031e57806395d89b411461033c578063a22cb4651461035a5761014d565b806323b872dd1161011557806323b872dd1461020a578063346de50a1461022657806340c10f191461024457806342842e0e1461026057806355f804b31461027c5780636352211e146102985761014d565b806301ffc9a71461015257806306fdde0314610182578063081812fc146101a0578063095ea7b3146101d057806317d70f7c146101ec575b600080fd5b61016c60048036038101906101679190612167565b610436565b60405161017991906125f4565b60405180910390f35b61018a610518565b604051610197919061260f565b60405180910390f35b6101ba60048036038101906101b591906121fa565b6105aa565b6040516101c7919061258d565b60405180910390f35b6101ea60048036038101906101e5919061212b565b61062f565b005b6101f4610747565b6040516102019190612871565b60405180910390f35b610224600480360381019061021f9190612025565b61074d565b005b61022e6107ad565b60405161023b91906125f4565b60405180910390f35b61025e6004803603810190610259919061212b565b6107c0565b005b61027a60048036038101906102759190612025565b6108e0565b005b610296600480360381019061029191906121b9565b610900565b005b6102b260048036038101906102ad91906121fa565b610996565b6040516102bf919061258d565b60405180910390f35b6102e260048036038101906102dd91906121fa565b610a48565b005b6102fe60048036038101906102f99190611fc0565b610ace565b60405161030b9190612871565b60405180910390f35b61031c610b86565b005b610326610c0e565b604051610333919061258d565b60405180910390f35b610344610c38565b604051610351919061260f565b60405180910390f35b610374600480360381019061036f91906120ef565b610cca565b005b610390600480360381019061038b9190612074565b610ce0565b005b61039a610d42565b005b6103b660048036038101906103b191906121fa565b610dea565b6040516103c3919061260f565b60405180910390f35b6103d4610e91565b6040516103e19190612871565b60405180910390f35b61040460048036038101906103ff9190611fe9565b610e97565b60405161041191906125f4565b60405180910390f35b610434600480360381019061042f9190611fc0565b610f2b565b005b60007f80ac58cd000000000000000000000000000000000000000000000000000000007bffffffffffffffffffffffffffffffffffffffffffffffffffffffff1916827bffffffffffffffffffffffffffffffffffffffffffffffffffffffff1916148061050157507f5b5e139f000000000000000000000000000000000000000000000000000000007bffffffffffffffffffffffffffffffffffffffffffffffffffffffff1916827bffffffffffffffffffffffffffffffffffffffffffffffffffffffff1916145b80610511575061051082611023565b5b9050919050565b60606000805461052790612ac7565b80601f016020809104026020016040519081016040528092919081815260200182805461055390612ac7565b80156105a05780601f10610575576101008083540402835291602001916105a0565b820191906000526020600020905b81548152906001019060200180831161058357829003601f168201915b5050505050905090565b60006105b58261108d565b6105f4576040517f08c379a00000000000000000000000000000000000000000000000000000000081526004016105eb906127d1565b60405180910390fd5b6004600083815260200190815260200160002060009054906101000a900473ffffffffffffffffffffffffffffffffffffffff169050919050565b600061063a82610996565b90508073ffffffffffffffffffffffffffffffffffffffff168373ffffffffffffffffffffffffffffffffffffffff1614156106ab576040517f08c379a00000000000000000000000000000000000000000000000000000000081526004016106a290612831565b60405180910390fd5b8073ffffffffffffffffffffffffffffffffffffffff166106ca6110f9565b73ffffffffffffffffffffffffffffffffffffffff1614806106f957506106f8816106f36110f9565b610e97565b5b610738576040517f08c379a000000000000000000000000000000000000000000000000000000000815260040161072f90612751565b60405180910390fd5b6107428383611101565b505050565b60075481565b61075e6107586110f9565b826111ba565b61079d576040517f08c379a000000000000000000000000000000000000000000000000000000000815260040161079490612851565b60405180910390fd5b6107a8838383611298565b505050565b600960009054906101000a900460ff1681565b6107c86110f9565b73ffffffffffffffffffffffffffffffffffffffff166107e6610c0e565b73ffffffffffffffffffffffffffffffffffffffff161461083c576040517f08c379a0000000000000000000000000000000000000000000000000000000008152600401610833906127f1565b60405180910390fd5b600960009054906101000a900460ff1661088b576040517f08c379a000000000000000000000000000000000000000000000000000000000815260040161088290612651565b60405180910390fd5b60085460075411156108d2576040517f08c379a00000000000000000000000000000000000000000000000000000000081526004016108c990612711565b60405180910390fd5b6108dc82826114ff565b5050565b6108fb83838360405180602001604052806000815250610ce0565b505050565b6109086110f9565b73ffffffffffffffffffffffffffffffffffffffff16610926610c0e565b73ffffffffffffffffffffffffffffffffffffffff161461097c576040517f08c379a0000000000000000000000000000000000000000000000000000000008152600401610973906127f1565b60405180910390fd5b80600a9080519060200190610992929190611de4565b5050565b6000806002600084815260200190815260200160002060009054906101000a900473ffffffffffffffffffffffffffffffffffffffff169050600073ffffffffffffffffffffffffffffffffffffffff168173ffffffffffffffffffffffffffffffffffffffff161415610a3f576040517f08c379a0000000000000000000000000000000000000000000000000000000008152600401610a3690612791565b60405180910390fd5b80915050919050565b610a506110f9565b73ffffffffffffffffffffffffffffffffffffffff16610a6e610c0e565b73ffffffffffffffffffffffffffffffffffffffff1614610ac4576040517f08c379a0000000000000000000000000000000000000000000000000000000008152600401610abb906127f1565b60405180910390fd5b8060088190555050565b60008073ffffffffffffffffffffffffffffffffffffffff168273ffffffffffffffffffffffffffffffffffffffff161415610b3f576040517f08c379a0000000000000000000000000000000000000000000000000000000008152600401610b3690612771565b60405180910390fd5b600360008373ffffffffffffffffffffffffffffffffffffffff1673ffffffffffffffffffffffffffffffffffffffff168152602001908152602001600020549050919050565b610b8e6110f9565b73ffffffffffffffffffffffffffffffffffffffff16610bac610c0e565b73ffffffffffffffffffffffffffffffffffffffff1614610c02576040517f08c379a0000000000000000000000000000000000000000000000000000000008152600401610bf9906127f1565b60405180910390fd5b610c0c600061151d565b565b6000600660009054906101000a900473ffffffffffffffffffffffffffffffffffffffff16905090565b606060018054610c4790612ac7565b80601f0160208091040260200160405190810160405280929190818152602001828054610c7390612ac7565b8015610cc05780601f10610c9557610100808354040283529160200191610cc0565b820191906000526020600020905b815481529060010190602001808311610ca357829003601f168201915b5050505050905090565b610cdc610cd56110f9565b83836115e3565b5050565b610cf1610ceb6110f9565b836111ba565b610d30576040517f08c379a0000000000000000000000000000000000000000000000000000000008152600401610d2790612851565b60405180910390fd5b610d3c84848484611750565b50505050565b610d4a6110f9565b73ffffffffffffffffffffffffffffffffffffffff16610d68610c0e565b73ffffffffffffffffffffffffffffffffffffffff1614610dbe576040517f08c379a0000000000000000000000000000000000000000000000000000000008152600401610db5906127f1565b60405180910390fd5b600960009054906101000a900460ff1615600960006101000a81548160ff021916908315150217905550565b6060610df58261108d565b610e34576040517f08c379a0000000000000000000000000000000000000000000000000000000008152600401610e2b90612811565b60405180910390fd5b6000610e3e6117ac565b90506000815111610e5e5760405180602001604052806000815250610e89565b80610e688461183e565b604051602001610e79929190612569565b6040516020818303038152906040525b915050919050565b60085481565b6000600560008473ffffffffffffffffffffffffffffffffffffffff1673ffffffffffffffffffffffffffffffffffffffff16815260200190815260200160002060008373ffffffffffffffffffffffffffffffffffffffff1673ffffffffffffffffffffffffffffffffffffffff16815260200190815260200160002060009054906101000a900460ff16905092915050565b610f336110f9565b73ffffffffffffffffffffffffffffffffffffffff16610f51610c0e565b73ffffffffffffffffffffffffffffffffffffffff1614610fa7576040517f08c379a0000000000000000000000000000000000000000000000000000000008152600401610f9e906127f1565b60405180910390fd5b600073ffffffffffffffffffffffffffffffffffffffff168173ffffffffffffffffffffffffffffffffffffffff161415611017576040517f08c379a000000000000000000000000000000000000000000000000000000000815260040161100e90612671565b60405180910390fd5b6110208161151d565b50565b60007f01ffc9a7000000000000000000000000000000000000000000000000000000007bffffffffffffffffffffffffffffffffffffffffffffffffffffffff1916827bffffffffffffffffffffffffffffffffffffffffffffffffffffffff1916149050919050565b60008073ffffffffffffffffffffffffffffffffffffffff166002600084815260200190815260200160002060009054906101000a900473ffffffffffffffffffffffffffffffffffffffff1673ffffffffffffffffffffffffffffffffffffffff1614159050919050565b600033905090565b816004600083815260200190815260200160002060006101000a81548173ffffffffffffffffffffffffffffffffffffffff021916908373ffffffffffffffffffffffffffffffffffffffff160217905550808273ffffffffffffffffffffffffffffffffffffffff1661117483610996565b73ffffffffffffffffffffffffffffffffffffffff167f8c5be1e5ebec7d5bd14f71427d1e84f3dd0314c0f7b2291e5b200ac8c7c3b92560405160405180910390a45050565b60006111c58261108d565b611204576040517f08c379a00000000000000000000000000000000000000000000000000000000081526004016111fb90612731565b60405180910390fd5b600061120f83610996565b90508073ffffffffffffffffffffffffffffffffffffffff168473ffffffffffffffffffffffffffffffffffffffff16148061125157506112508185610e97565b5b8061128f57508373ffffffffffffffffffffffffffffffffffffffff16611277846105aa565b73ffffffffffffffffffffffffffffffffffffffff16145b91505092915050565b8273ffffffffffffffffffffffffffffffffffffffff166112b882610996565b73ffffffffffffffffffffffffffffffffffffffff161461130e576040517f08c379a000000000000000000000000000000000000000000000000000000000815260040161130590612691565b60405180910390fd5b600073ffffffffffffffffffffffffffffffffffffffff168273ffffffffffffffffffffffffffffffffffffffff16141561137e576040517f08c379a0000000000000000000000000000000000000000000000000000000008152600401611375906126d1565b60405180910390fd5b6113898383836119eb565b611394600082611101565b6001600360008573ffffffffffffffffffffffffffffffffffffffff1673ffffffffffffffffffffffffffffffffffffffff16815260200190815260200160002060008282546113e491906129dd565b925050819055506001600360008473ffffffffffffffffffffffffffffffffffffffff1673ffffffffffffffffffffffffffffffffffffffff168152602001908152602001600020600082825461143b9190612956565b92505081905550816002600083815260200190815260200160002060006101000a81548173ffffffffffffffffffffffffffffffffffffffff021916908373ffffffffffffffffffffffffffffffffffffffff160217905550808273ffffffffffffffffffffffffffffffffffffffff168473ffffffffffffffffffffffffffffffffffffffff167fddf252ad1be2c89b69c2b068fc378daa952ba7f163c4a11628f55a4df523b3ef60405160405180910390a46114fa8383836119f0565b505050565b6115198282604051806020016040528060008152506119f5565b5050565b6000600660009054906101000a900473ffffffffffffffffffffffffffffffffffffffff16905081600660006101000a81548173ffffffffffffffffffffffffffffffffffffffff021916908373ffffffffffffffffffffffffffffffffffffffff1602179055508173ffffffffffffffffffffffffffffffffffffffff168173ffffffffffffffffffffffffffffffffffffffff167f8be0079c531659141344cd1fd0a4f28419497f9722a3daafe3b4186f6b6457e060405160405180910390a35050565b8173ffffffffffffffffffffffffffffffffffffffff168373ffffffffffffffffffffffffffffffffffffffff161415611652576040517f08c379a0000000000000000000000000000000000000000000000000000000008152600401611649906126f1565b60405180910390fd5b80600560008573ffffffffffffffffffffffffffffffffffffffff1673ffffffffffffffffffffffffffffffffffffffff16815260200190815260200160002060008473ffffffffffffffffffffffffffffffffffffffff1673ffffffffffffffffffffffffffffffffffffffff16815260200190815260200160002060006101000a81548160ff0219169083151502179055508173ffffffffffffffffffffffffffffffffffffffff168373ffffffffffffffffffffffffffffffffffffffff167f17307eab39ab6107e8899845ad3d59bd9653f200f220920489ca2b5937696c318360405161174391906125f4565b60405180910390a3505050565b61175b848484611298565b61176784848484611a50565b6117a6576040517f08c379a000000000000000000000000000000000000000000000000000000000815260040161179d90612631565b60405180910390fd5b50505050565b6060600a80546117bb90612ac7565b80601f01602080910402602001604051908101604052809291908181526020018280546117e790612ac7565b80156118345780601f1061180957610100808354040283529160200191611834565b820191906000526020600020905b81548152906001019060200180831161181757829003601f168201915b5050505050905090565b60606000821415611886576040518060400160405280600181526020017f300000000000000000000000000000000000000000000000000000000000000081525090506119e6565b600082905060005b600082146118b85780806118a190612b2a565b915050600a826118b191906129ac565b915061188e565b60008167ffffffffffffffff8111156118fa577f4e487b7100000000000000000000000000000000000000000000000000000000600052604160045260246000fd5b6040519080825280601f01601f19166020018201604052801561192c5781602001600182028036833780820191505090505b5090505b600085146119df5760018261194591906129dd565b9150600a856119549190612b73565b60306119609190612956565b60f81b81838151811061199c577f4e487b7100000000000000000000000000000000000000000000000000000000600052603260045260246000fd5b60200101907effffffffffffffffffffffffffffffffffffffffffffffffffffffffffffff1916908160001a905350600a856119d891906129ac565b9450611930565b8093505050505b919050565b505050565b505050565b6119ff8383611be7565b611a0c6000848484611a50565b611a4b576040517f08c379a0000000000000000000000000000000000000000000000000000000008152600401611a4290612631565b60405180910390fd5b505050565b6000611a718473ffffffffffffffffffffffffffffffffffffffff16611dc1565b15611bda578373ffffffffffffffffffffffffffffffffffffffff1663150b7a02611a9a6110f9565b8786866040518563ffffffff1660e01b8152600401611abc94939291906125a8565b602060405180830381600087803b158015611ad657600080fd5b505af1925050508015611b0757506040513d601f19601f82011682018060405250810190611b049190612190565b60015b611b8a573d8060008114611b37576040519150601f19603f3d011682016040523d82523d6000602084013e611b3c565b606091505b50600081511415611b82576040517f08c379a0000000000000000000000000000000000000000000000000000000008152600401611b7990612631565b60405180910390fd5b805181602001fd5b63150b7a0260e01b7bffffffffffffffffffffffffffffffffffffffffffffffffffffffff1916817bffffffffffffffffffffffffffffffffffffffffffffffffffffffff191614915050611bdf565b600190505b949350505050565b600073ffffffffffffffffffffffffffffffffffffffff168273ffffffffffffffffffffffffffffffffffffffff161415611c57576040517f08c379a0000000000000000000000000000000000000000000000000000000008152600401611c4e906127b1565b60405180910390fd5b611c608161108d565b15611ca0576040517f08c379a0000000000000000000000000000000000000000000000000000000008152600401611c97906126b1565b60405180910390fd5b611cac600083836119eb565b6001600360008473ffffffffffffffffffffffffffffffffffffffff1673ffffffffffffffffffffffffffffffffffffffff1681526020019081526020016000206000828254611cfc9190612956565b92505081905550816002600083815260200190815260200160002060006101000a81548173ffffffffffffffffffffffffffffffffffffffff021916908373ffffffffffffffffffffffffffffffffffffffff160217905550808273ffffffffffffffffffffffffffffffffffffffff16600073ffffffffffffffffffffffffffffffffffffffff167fddf252ad1be2c89b69c2b068fc378daa952ba7f163c4a11628f55a4df523b3ef60405160405180910390a4611dbd600083836119f0565b5050565b6000808273ffffffffffffffffffffffffffffffffffffffff163b119050919050565b828054611df090612ac7565b90600052602060002090601f016020900481019282611e125760008555611e59565b82601f10611e2b57805160ff1916838001178555611e59565b82800160010185558215611e59579182015b82811115611e58578251825591602001919060010190611e3d565b5b509050611e669190611e6a565b5090565b5b80821115611e83576000816000905550600101611e6b565b5090565b6000611e9a611e95846128b1565b61288c565b905082815260208101848484011115611eb257600080fd5b611ebd848285612a85565b509392505050565b6000611ed8611ed3846128e2565b61288c565b905082815260208101848484011115611ef057600080fd5b611efb848285612a85565b509392505050565b600081359050611f128161311b565b92915050565b600081359050611f2781613132565b92915050565b600081359050611f3c81613149565b92915050565b600081519050611f5181613149565b92915050565b600082601f830112611f6857600080fd5b8135611f78848260208601611e87565b91505092915050565b600082601f830112611f9257600080fd5b8135611fa2848260208601611ec5565b91505092915050565b600081359050611fba81613160565b92915050565b600060208284031215611fd257600080fd5b6000611fe084828501611f03565b91505092915050565b60008060408385031215611ffc57600080fd5b600061200a85828601611f03565b925050602061201b85828601611f03565b9150509250929050565b60008060006060848603121561203a57600080fd5b600061204886828701611f03565b935050602061205986828701611f03565b925050604061206a86828701611fab565b9150509250925092565b6000806000806080858703121561208a57600080fd5b600061209887828801611f03565b94505060206120a987828801611f03565b93505060406120ba87828801611fab565b925050606085013567ffffffffffffffff8111156120d757600080fd5b6120e387828801611f57565b91505092959194509250565b6000806040838503121561210257600080fd5b600061211085828601611f03565b925050602061212185828601611f18565b9150509250929050565b6000806040838503121561213e57600080fd5b600061214c85828601611f03565b925050602061215d85828601611fab565b9150509250929050565b60006020828403121561217957600080fd5b600061218784828501611f2d565b91505092915050565b6000602082840312156121a257600080fd5b60006121b084828501611f42565b91505092915050565b6000602082840312156121cb57600080fd5b600082013567ffffffffffffffff8111156121e557600080fd5b6121f184828501611f81565b91505092915050565b60006020828403121561220c57600080fd5b600061221a84828501611fab565b91505092915050565b61222c81612a11565b82525050565b61223b81612a23565b82525050565b600061224c82612913565b6122568185612929565b9350612266818560208601612a94565b61226f81612c60565b840191505092915050565b60006122858261291e565b61228f818561293a565b935061229f818560208601612a94565b6122a881612c60565b840191505092915050565b60006122be8261291e565b6122c8818561294b565b93506122d8818560208601612a94565b80840191505092915050565b60006122f160328361293a565b91506122fc82612c71565b604082019050919050565b600061231460138361293a565b915061231f82612cc0565b602082019050919050565b600061233760268361293a565b915061234282612ce9565b604082019050919050565b600061235a60258361293a565b915061236582612d38565b604082019050919050565b600061237d601c8361293a565b915061238882612d87565b602082019050919050565b60006123a060248361293a565b91506123ab82612db0565b604082019050919050565b60006123c360198361293a565b91506123ce82612dff565b602082019050919050565b60006123e6600c8361293a565b91506123f182612e28565b602082019050919050565b6000612409602c8361293a565b915061241482612e51565b604082019050919050565b600061242c60388361293a565b915061243782612ea0565b604082019050919050565b600061244f602a8361293a565b915061245a82612eef565b604082019050919050565b600061247260298361293a565b915061247d82612f3e565b604082019050919050565b600061249560208361293a565b91506124a082612f8d565b602082019050919050565b60006124b8602c8361293a565b91506124c382612fb6565b604082019050919050565b60006124db60208361293a565b91506124e682613005565b602082019050919050565b60006124fe602f8361293a565b91506125098261302e565b604082019050919050565b600061252160218361293a565b915061252c8261307d565b604082019050919050565b600061254460318361293a565b915061254f826130cc565b604082019050919050565b61256381612a7b565b82525050565b600061257582856122b3565b915061258182846122b3565b91508190509392505050565b60006020820190506125a26000830184612223565b92915050565b60006080820190506125bd6000830187612223565b6125ca6020830186612223565b6125d7604083018561255a565b81810360608301526125e98184612241565b905095945050505050565b60006020820190506126096000830184612232565b92915050565b60006020820190508181036000830152612629818461227a565b905092915050565b6000602082019050818103600083015261264a816122e4565b9050919050565b6000602082019050818103600083015261266a81612307565b9050919050565b6000602082019050818103600083015261268a8161232a565b9050919050565b600060208201905081810360008301526126aa8161234d565b9050919050565b600060208201905081810360008301526126ca81612370565b9050919050565b600060208201905081810360008301526126ea81612393565b9050919050565b6000602082019050818103600083015261270a816123b6565b9050919050565b6000602082019050818103600083015261272a816123d9565b9050919050565b6000602082019050818103600083015261274a816123fc565b9050919050565b6000602082019050818103600083015261276a8161241f565b9050919050565b6000602082019050818103600083015261278a81612442565b9050919050565b600060208201905081810360008301526127aa81612465565b9050919050565b600060208201905081810360008301526127ca81612488565b9050919050565b600060208201905081810360008301526127ea816124ab565b9050919050565b6000602082019050818103600083015261280a816124ce565b9050919050565b6000602082019050818103600083015261282a816124f1565b9050919050565b6000602082019050818103600083015261284a81612514565b9050919050565b6000602082019050818103600083015261286a81612537565b9050919050565b6000602082019050612886600083018461255a565b92915050565b60006128966128a7565b90506128a28282612af9565b919050565b6000604051905090565b600067ffffffffffffffff8211156128cc576128cb612c31565b5b6128d582612c60565b9050602081019050919050565b600067ffffffffffffffff8211156128fd576128fc612c31565b5b61290682612c60565b9050602081019050919050565b600081519050919050565b600081519050919050565b600082825260208201905092915050565b600082825260208201905092915050565b600081905092915050565b600061296182612a7b565b915061296c83612a7b565b9250827fffffffffffffffffffffffffffffffffffffffffffffffffffffffffffffffff038211156129a1576129a0612ba4565b5b828201905092915050565b60006129b782612a7b565b91506129c283612a7b565b9250826129d2576129d1612bd3565b5b828204905092915050565b60006129e882612a7b565b91506129f383612a7b565b925082821015612a0657612a05612ba4565b5b828203905092915050565b6000612a1c82612a5b565b9050919050565b60008115159050919050565b60007fffffffff0000000000000000000000000000000000000000000000000000000082169050919050565b600073ffffffffffffffffffffffffffffffffffffffff82169050919050565b6000819050919050565b82818337600083830152505050565b60005b83811015612ab2578082015181840152602081019050612a97565b83811115612ac1576000848401525b50505050565b60006002820490506001821680612adf57607f821691505b60208210811415612af357612af2612c02565b5b50919050565b612b0282612c60565b810181811067ffffffffffffffff82111715612b2157612b20612c31565b5b80604052505050565b6000612b3582612a7b565b91507fffffffffffffffffffffffffffffffffffffffffffffffffffffffffffffffff821415612b6857612b67612ba4565b5b600182019050919050565b6000612b7e82612a7b565b9150612b8983612a7b565b925082612b9957612b98612bd3565b5b828206905092915050565b7f4e487b7100000000000000000000000000000000000000000000000000000000600052601160045260246000fd5b7f4e487b7100000000000000000000000000000000000000000000000000000000600052601260045260246000fd5b7f4e487b7100000000000000000000000000000000000000000000000000000000600052602260045260246000fd5b7f4e487b7100000000000000000000000000000000000000000000000000000000600052604160045260246000fd5b6000601f19601f8301169050919050565b7f4552433732313a207472616e7366657220746f206e6f6e20455243373231526560008201527f63656976657220696d706c656d656e7465720000000000000000000000000000602082015250565b7f6d696e74696e67206e6f7420656e61626c656400000000000000000000000000600082015250565b7f4f776e61626c653a206e6577206f776e657220697320746865207a65726f206160008201527f6464726573730000000000000000000000000000000000000000000000000000602082015250565b7f4552433732313a207472616e736665722066726f6d20696e636f72726563742060008201527f6f776e6572000000000000000000000000000000000000000000000000000000602082015250565b7f4552433732313a20746f6b656e20616c7265616479206d696e74656400000000600082015250565b7f4552433732313a207472616e7366657220746f20746865207a65726f2061646460008201527f7265737300000000000000000000000000000000000000000000000000000000602082015250565b7f4552433732313a20617070726f766520746f2063616c6c657200000000000000600082015250565b7f6f7574206f662072616e67650000000000000000000000000000000000000000600082015250565b7f4552433732313a206f70657261746f7220717565727920666f72206e6f6e657860008201527f697374656e7420746f6b656e0000000000000000000000000000000000000000602082015250565b7f4552433732313a20617070726f76652063616c6c6572206973206e6f74206f7760008201527f6e6572206e6f7220617070726f76656420666f7220616c6c0000000000000000602082015250565b7f4552433732313a2062616c616e636520717565727920666f7220746865207a6560008201527f726f206164647265737300000000000000000000000000000000000000000000602082015250565b7f4552433732313a206f776e657220717565727920666f72206e6f6e657869737460008201527f656e7420746f6b656e0000000000000000000000000000000000000000000000602082015250565b7f4552433732313a206d696e7420746f20746865207a65726f2061646472657373600082015250565b7f4552433732313a20617070726f76656420717565727920666f72206e6f6e657860008201527f697374656e7420746f6b656e0000000000000000000000000000000000000000602082015250565b7f4f776e61626c653a2063616c6c6572206973206e6f7420746865206f776e6572600082015250565b7f4552433732314d657461646174613a2055524920717565727920666f72206e6f60008201527f6e6578697374656e7420746f6b656e0000000000000000000000000000000000602082015250565b7f4552433732313a20617070726f76616c20746f2063757272656e74206f776e6560008201527f7200000000000000000000000000000000000000000000000000000000000000602082015250565b7f4552433732313a207472616e736665722063616c6c6572206973206e6f74206f60008201527f776e6572206e6f7220617070726f766564000000000000000000000000000000602082015250565b61312481612a11565b811461312f57600080fd5b50565b61313b81612a23565b811461314657600080fd5b50565b61315281612a2f565b811461315d57600080fd5b50565b61316981612a7b565b811461317457600080fd5b5056fea26469706673582212206ae44d3e827afa3fe1a325f1c410cb9fac3eeed1b487d6d00ca83729d2f0daba64736f6c63430008040033426c6f636b636861696e204368616c6c656e67652032303232204575726f4d6f757365202d2048616c6c6f7765656e2045646974696f6e",
  "linkReferences": {},
  "deployedLinkReferences": {}
}