{
  "_format": "hh-sol-artifact-1",
  "contractName": "EuroMouse",
  "sourceName": "contracts/EuroMouse.sol",
  "abi": [
    {
      "inputs": [
        {
          "internalType": "string",
          "name": "baseURI",
          "type": "string"
        }
      ],
      "stateMutability": "nonpayable",
      "type": "constructor"
    },
    {
      "anonymous": false,
      "inputs": [
        {
          "indexed": true,
          "internalType": "address",
          "name": "owner",
          "type": "address"
        },
        {
          "indexed": true,
          "internalType": "address",
          "name": "approved",
          "type": "address"
        },
        {
          "indexed": true,
          "internalType": "uint256",
          "name": "tokenId",
          "type": "uint256"
        }
      ],
      "name": "Approval",
      "type": "event"
    },
    {
      "anonymous": false,
      "inputs": [
        {
          "indexed": true,
          "internalType": "address",
          "name": "owner",
          "type": "address"
        },
        {
          "indexed": true,
          "internalType": "address",
          "name": "operator",
          "type": "address"
        },
        {
          "indexed": false,
          "internalType": "bool",
          "name": "approved",
          "type": "bool"
        }
      ],
      "name": "ApprovalForAll",
      "type": "event"
    },
    {
      "anonymous": false,
      "inputs": [
        {
          "indexed": true,
          "internalType": "address",
          "name": "previousOwner",
          "type": "address"
        },
        {
          "indexed": true,
          "internalType": "address",
          "name": "newOwner",
          "type": "address"
        }
      ],
      "name": "OwnershipTransferred",
      "type": "event"
    },
    {
      "anonymous": false,
      "inputs": [
        {
          "indexed": true,
          "internalType": "address",
          "name": "from",
          "type": "address"
        },
        {
          "indexed": true,
          "internalType": "address",
          "name": "to",
          "type": "address"
        },
        {
          "indexed": true,
          "internalType": "uint256",
          "name": "tokenId",
          "type": "uint256"
        }
      ],
      "name": "Transfer",
      "type": "event"
    },
    {
      "inputs": [
        {
          "internalType": "address",
          "name": "to",
          "type": "address"
        },
        {
          "internalType": "uint256",
          "name": "tokenId",
          "type": "uint256"
        }
      ],
      "name": "approve",
      "outputs": [],
      "stateMutability": "nonpayable",
      "type": "function"
    },
    {
      "inputs": [
        {
          "internalType": "address",
          "name": "owner",
          "type": "address"
        }
      ],
      "name": "balanceOf",
      "outputs": [
        {
          "internalType": "uint256",
          "name": "",
          "type": "uint256"
        }
      ],
      "stateMutability": "view",
      "type": "function"
    },
    {
      "inputs": [
        {
          "internalType": "uint256",
          "name": "tokenId",
          "type": "uint256"
        }
      ],
      "name": "getApproved",
      "outputs": [
        {
          "internalType": "address",
          "name": "",
          "type": "address"
        }
      ],
      "stateMutability": "view",
      "type": "function"
    },
    {
      "inputs": [
        {
          "internalType": "address",
          "name": "owner",
          "type": "address"
        },
        {
          "internalType": "address",
          "name": "operator",
          "type": "address"
        }
      ],
      "name": "isApprovedForAll",
      "outputs": [
        {
          "internalType": "bool",
          "name": "",
          "type": "bool"
        }
      ],
      "stateMutability": "view",
      "type": "function"
    },
    {
      "inputs": [],
      "name": "isMintEnabled",
      "outputs": [
        {
          "internalType": "bool",
          "name": "",
          "type": "bool"
        }
      ],
      "stateMutability": "view",
      "type": "function"
    },
    {
      "inputs": [],
      "name": "maxSupply",
      "outputs": [
        {
          "internalType": "uint256",
          "name": "",
          "type": "uint256"
        }
      ],
      "stateMutability": "view",
      "type": "function"
    },
    {
      "inputs": [
        {
          "internalType": "address",
          "name": "_receiver",
          "type": "address"
        },
        {
          "internalType": "uint256",
          "name": "tID",
          "type": "uint256"
        }
      ],
      "name": "mint",
      "outputs": [],
      "stateMutability": "nonpayable",
      "type": "function"
    },
    {
      "inputs": [],
      "name": "name",
      "outputs": [
        {
          "internalType": "string",
          "name": "",
          "type": "string"
        }
      ],
      "stateMutability": "view",
      "type": "function"
    },
    {
      "inputs": [],
      "name": "owner",
      "outputs": [
        {
          "internalType": "address",
          "name": "",
          "type": "address"
        }
      ],
      "stateMutability": "view",
      "type": "function"
    },
    {
      "inputs": [
        {
          "internalType": "uint256",
          "name": "tokenId",
          "type": "uint256"
        }
      ],
      "name": "ownerOf",
      "outputs": [
        {
          "internalType": "address",
          "name": "",
          "type": "address"
        }
      ],
      "stateMutability": "view",
      "type": "function"
    },
    {
      "inputs": [],
      "name": "renounceOwnership",
      "outputs": [],
      "stateMutability": "nonpayable",
      "type": "function"
    },
    {
      "inputs": [
        {
          "internalType": "address",
          "name": "from",
          "type": "address"
        },
        {
          "internalType": "address",
          "name": "to",
          "type": "address"
        },
        {
          "internalType": "uint256",
          "name": "tokenId",
          "type": "uint256"
        }
      ],
      "name": "safeTransferFrom",
      "outputs": [],
      "stateMutability": "nonpayable",
      "type": "function"
    },
    {
      "inputs": [
        {
          "internalType": "address",
          "name": "from",
          "type": "address"
        },
        {
          "internalType": "address",
          "name": "to",
          "type": "address"
        },
        {
          "internalType": "uint256",
          "name": "tokenId",
          "type": "uint256"
        },
        {
          "internalType": "bytes",
          "name": "_data",
          "type": "bytes"
        }
      ],
      "name": "safeTransferFrom",
      "outputs": [],
      "stateMutability": "nonpayable",
      "type": "function"
    },
    {
      "inputs": [
        {
          "internalType": "address",
          "name": "operator",
          "type": "address"
        },
        {
          "internalType": "bool",
          "name": "approved",
          "type": "bool"
        }
      ],
      "name": "setApprovalForAll",
      "outputs": [],
      "stateMutability": "nonpayable",
      "type": "function"
    },
    {
      "inputs": [
        {
          "internalType": "string",
          "name": "_baseTokenURI",
          "type": "string"
        }
      ],
      "name": "setBaseURI",
      "outputs": [],
      "stateMutability": "nonpayable",
      "type": "function"
    },
    {
      "inputs": [
        {
          "internalType": "uint256",
          "name": "maxSupply_",
          "type": "uint256"
        }
      ],
      "name": "setMaxSupply",
      "outputs": [],
      "stateMutability": "nonpayable",
      "type": "function"
    },
    {
      "inputs": [
        {
          "internalType": "bytes4",
          "name": "interfaceId",
          "type": "bytes4"
        }
      ],
      "name": "supportsInterface",
      "outputs": [
        {
          "internalType": "bool",
          "name": "",
          "type": "bool"
        }
      ],
      "stateMutability": "view",
      "type": "function"
    },
    {
      "inputs": [],
      "name": "symbol",
      "outputs": [
        {
          "internalType": "string",
          "name": "",
          "type": "string"
        }
      ],
      "stateMutability": "view",
      "type": "function"
    },
    {
      "inputs": [],
      "name": "toggleIsMintEnabled",
      "outputs": [],
      "stateMutability": "nonpayable",
      "type": "function"
    },
    {
      "inputs": [
        {
          "internalType": "uint256",
          "name": "index",
          "type": "uint256"
        }
      ],
      "name": "tokenByIndex",
      "outputs": [
        {
          "internalType": "uint256",
          "name": "",
          "type": "uint256"
        }
      ],
      "stateMutability": "view",
      "type": "function"
    },
    {
      "inputs": [],
      "name": "tokenId",
      "outputs": [
        {
          "internalType": "uint256",
          "name": "",
          "type": "uint256"
        }
      ],
      "stateMutability": "view",
      "type": "function"
    },
    {
      "inputs": [
        {
          "internalType": "address",
          "name": "owner",
          "type": "address"
        },
        {
          "internalType": "uint256",
          "name": "index",
          "type": "uint256"
        }
      ],
      "name": "tokenOfOwnerByIndex",
      "outputs": [
        {
          "internalType": "uint256",
          "name": "",
          "type": "uint256"
        }
      ],
      "stateMutability": "view",
      "type": "function"
    },
    {
      "inputs": [
        {
          "internalType": "uint256",
          "name": "tokenId",
          "type": "uint256"
        }
      ],
      "name": "tokenURI",
      "outputs": [
        {
          "internalType": "string",
          "name": "",
          "type": "string"
        }
      ],
      "stateMutability": "view",
      "type": "function"
    },
    {
      "inputs": [],
      "name": "totalSupply",
      "outputs": [
        {
          "internalType": "uint256",
          "name": "",
          "type": "uint256"
        }
      ],
      "stateMutability": "view",
      "type": "function"
    },
    {
      "inputs": [
        {
          "internalType": "address",
          "name": "from",
          "type": "address"
        },
        {
          "internalType": "address",
          "name": "to",
          "type": "address"
        },
        {
          "internalType": "uint256",
          "name": "tokenId",
          "type": "uint256"
        }
      ],
      "name": "transferFrom",
      "outputs": [],
      "stateMutability": "nonpayable",
      "type": "function"
    },
    {
      "inputs": [
        {
          "internalType": "address",
          "name": "newOwner",
          "type": "address"
        }
      ],
      "name": "transferOwnership",
      "outputs": [],
      "stateMutability": "nonpayable",
      "type": "function"
    }
  ],
  "bytecode": "0x60806040526065600c553480156200001657600080fd5b50604051620040053803806200400583398181016040528101906200003c9190620003bd565b60405180606001604052806021815260200162003fe4602191396040518060400160405280600781526020017f45554d4f555345000000000000000000000000000000000000000000000000008152508160009080519060200190620000a49291906200029b565b508060019080519060200190620000bd9291906200029b565b505050620000e0620000d4620000f860201b60201c565b6200010060201b60201c565b620000f181620001c660201b60201c565b50620005f5565b600033905090565b6000600a60009054906101000a900473ffffffffffffffffffffffffffffffffffffffff16905081600a60006101000a81548173ffffffffffffffffffffffffffffffffffffffff021916908373ffffffffffffffffffffffffffffffffffffffff1602179055508173ffffffffffffffffffffffffffffffffffffffff168173ffffffffffffffffffffffffffffffffffffffff167f8be0079c531659141344cd1fd0a4f28419497f9722a3daafe3b4186f6b6457e060405160405180910390a35050565b620001d6620000f860201b60201c565b73ffffffffffffffffffffffffffffffffffffffff16620001fc6200027160201b60201c565b73ffffffffffffffffffffffffffffffffffffffff161462000255576040517f08c379a00000000000000000000000000000000000000000000000000000000081526004016200024c9062000429565b60405180910390fd5b80600e90805190602001906200026d9291906200029b565b5050565b6000600a60009054906101000a900473ffffffffffffffffffffffffffffffffffffffff16905090565b828054620002a990620004f1565b90600052602060002090601f016020900481019282620002cd576000855562000319565b82601f10620002e857805160ff191683800117855562000319565b8280016001018555821562000319579182015b8281111562000318578251825591602001919060010190620002fb565b5b5090506200032891906200032c565b5090565b5b80821115620003475760008160009055506001016200032d565b5090565b6000620003626200035c8462000474565b6200044b565b9050828152602081018484840111156200037b57600080fd5b62000388848285620004bb565b509392505050565b600082601f830112620003a257600080fd5b8151620003b48482602086016200034b565b91505092915050565b600060208284031215620003d057600080fd5b600082015167ffffffffffffffff811115620003eb57600080fd5b620003f98482850162000390565b91505092915050565b600062000411602083620004aa565b91506200041e82620005cc565b602082019050919050565b60006020820190508181036000830152620004448162000402565b9050919050565b6000620004576200046a565b905062000465828262000527565b919050565b6000604051905090565b600067ffffffffffffffff8211156200049257620004916200058c565b5b6200049d82620005bb565b9050602081019050919050565b600082825260208201905092915050565b60005b83811015620004db578082015181840152602081019050620004be565b83811115620004eb576000848401525b50505050565b600060028204905060018216806200050a57607f821691505b602082108114156200052157620005206200055d565b5b50919050565b6200053282620005bb565b810181811067ffffffffffffffff821117156200055457620005536200058c565b5b80604052505050565b7f4e487b7100000000000000000000000000000000000000000000000000000000600052602260045260246000fd5b7f4e487b7100000000000000000000000000000000000000000000000000000000600052604160045260246000fd5b6000601f19601f8301169050919050565b7f4f776e61626c653a2063616c6c6572206973206e6f7420746865206f776e6572600082015250565b6139df80620006056000396000f3fe608060405234801561001057600080fd5b506004361061018e5760003560e01c80636352211e116100de578063a22cb46511610097578063c87b56dd11610071578063c87b56dd1461045b578063d5abeb011461048b578063e985e9c5146104a9578063f2fde38b146104d95761018e565b8063a22cb46514610419578063b88d4fde14610435578063c4073217146104515761018e565b80636352211e146103575780636f8b44b01461038757806370a08231146103a3578063715018a6146103d35780638da5cb5b146103dd57806395d89b41146103fb5761018e565b806323b872dd1161014b57806340c10f191161012557806340c10f19146102d357806342842e0e146102ef5780634f6ccce71461030b57806355f804b31461033b5761018e565b806323b872dd146102695780632f745c5914610285578063346de50a146102b55761018e565b806301ffc9a71461019357806306fdde03146101c3578063081812fc146101e1578063095ea7b31461021157806317d70f7c1461022d57806318160ddd1461024b575b600080fd5b6101ad60048036038101906101a89190612875565b6104f5565b6040516101ba9190612d48565b60405180910390f35b6101cb61056f565b6040516101d89190612d63565b60405180910390f35b6101fb60048036038101906101f69190612908565b610601565b6040516102089190612ce1565b60405180910390f35b61022b60048036038101906102269190612839565b610686565b005b61023561079e565b6040516102429190613005565b60405180910390f35b6102536107a4565b6040516102609190613005565b60405180910390f35b610283600480360381019061027e9190612733565b6107b1565b005b61029f600480360381019061029a9190612839565b610811565b6040516102ac9190613005565b60405180910390f35b6102bd6108b6565b6040516102ca9190612d48565b60405180910390f35b6102ed60048036038101906102e89190612839565b6108c9565b005b61030960048036038101906103049190612733565b6109e9565b005b61032560048036038101906103209190612908565b610a09565b6040516103329190613005565b60405180910390f35b610355600480360381019061035091906128c7565b610aa0565b005b610371600480360381019061036c9190612908565b610b36565b60405161037e9190612ce1565b60405180910390f35b6103a1600480360381019061039c9190612908565b610be8565b005b6103bd60048036038101906103b891906126ce565b610c6e565b6040516103ca9190613005565b60405180910390f35b6103db610d26565b005b6103e5610dae565b6040516103f29190612ce1565b60405180910390f35b610403610dd8565b6040516104109190612d63565b60405180910390f35b610433600480360381019061042e91906127fd565b610e6a565b005b61044f600480360381019061044a9190612782565b610e80565b005b610459610ee2565b005b61047560048036038101906104709190612908565b610f8a565b6040516104829190612d63565b60405180910390f35b610493611031565b6040516104a09190613005565b60405180910390f35b6104c360048036038101906104be91906126f7565b611037565b6040516104d09190612d48565b60405180910390f35b6104f360048036038101906104ee91906126ce565b6110cb565b005b60007f780e9d63000000000000000000000000000000000000000000000000000000007bffffffffffffffffffffffffffffffffffffffffffffffffffffffff1916827bffffffffffffffffffffffffffffffffffffffffffffffffffffffff191614806105685750610567826111c3565b5b9050919050565b60606000805461057e9061325b565b80601f01602080910402602001604051908101604052809291908181526020018280546105aa9061325b565b80156105f75780601f106105cc576101008083540402835291602001916105f7565b820191906000526020600020905b8154815290600101906020018083116105da57829003601f168201915b5050505050905090565b600061060c826112a5565b61064b576040517f08c379a000000000000000000000000000000000000000000000000000000000815260040161064290612f45565b60405180910390fd5b6004600083815260200190815260200160002060009054906101000a900473ffffffffffffffffffffffffffffffffffffffff169050919050565b600061069182610b36565b90508073ffffffffffffffffffffffffffffffffffffffff168373ffffffffffffffffffffffffffffffffffffffff161415610702576040517f08c379a00000000000000000000000000000000000000000000000000000000081526004016106f990612fa5565b60405180910390fd5b8073ffffffffffffffffffffffffffffffffffffffff16610721611311565b73ffffffffffffffffffffffffffffffffffffffff161480610750575061074f8161074a611311565b611037565b5b61078f576040517f08c379a000000000000000000000000000000000000000000000000000000000815260040161078690612ec5565b60405180910390fd5b6107998383611319565b505050565b600b5481565b6000600880549050905090565b6107c26107bc611311565b826113d2565b610801576040517f08c379a00000000000000000000000000000000000000000000000000000000081526004016107f890612fc5565b60405180910390fd5b61080c8383836114b0565b505050565b600061081c83610c6e565b821061085d576040517f08c379a000000000000000000000000000000000000000000000000000000000815260040161085490612d85565b60405180910390fd5b600660008473ffffffffffffffffffffffffffffffffffffffff1673ffffffffffffffffffffffffffffffffffffffff168152602001908152602001600020600083815260200190815260200160002054905092915050565b600d60009054906101000a900460ff1681565b6108d1611311565b73ffffffffffffffffffffffffffffffffffffffff166108ef610dae565b73ffffffffffffffffffffffffffffffffffffffff1614610945576040517f08c379a000000000000000000000000000000000000000000000000000000000815260040161093c90612f65565b60405180910390fd5b600d60009054906101000a900460ff16610994576040517f08c379a000000000000000000000000000000000000000000000000000000000815260040161098b90612dc5565b60405180910390fd5b600c54600b5411156109db576040517f08c379a00000000000000000000000000000000000000000000000000000000081526004016109d290612e85565b60405180910390fd5b6109e58282611717565b5050565b610a0483838360405180602001604052806000815250610e80565b505050565b6000610a136107a4565b8210610a54576040517f08c379a0000000000000000000000000000000000000000000000000000000008152600401610a4b90612fe5565b60405180910390fd5b60088281548110610a8e577f4e487b7100000000000000000000000000000000000000000000000000000000600052603260045260246000fd5b90600052602060002001549050919050565b610aa8611311565b73ffffffffffffffffffffffffffffffffffffffff16610ac6610dae565b73ffffffffffffffffffffffffffffffffffffffff1614610b1c576040517f08c379a0000000000000000000000000000000000000000000000000000000008152600401610b1390612f65565b60405180910390fd5b80600e9080519060200190610b329291906124f2565b5050565b6000806002600084815260200190815260200160002060009054906101000a900473ffffffffffffffffffffffffffffffffffffffff169050600073ffffffffffffffffffffffffffffffffffffffff168173ffffffffffffffffffffffffffffffffffffffff161415610bdf576040517f08c379a0000000000000000000000000000000000000000000000000000000008152600401610bd690612f05565b60405180910390fd5b80915050919050565b610bf0611311565b73ffffffffffffffffffffffffffffffffffffffff16610c0e610dae565b73ffffffffffffffffffffffffffffffffffffffff1614610c64576040517f08c379a0000000000000000000000000000000000000000000000000000000008152600401610c5b90612f65565b60405180910390fd5b80600c8190555050565b60008073ffffffffffffffffffffffffffffffffffffffff168273ffffffffffffffffffffffffffffffffffffffff161415610cdf576040517f08c379a0000000000000000000000000000000000000000000000000000000008152600401610cd690612ee5565b60405180910390fd5b600360008373ffffffffffffffffffffffffffffffffffffffff1673ffffffffffffffffffffffffffffffffffffffff168152602001908152602001600020549050919050565b610d2e611311565b73ffffffffffffffffffffffffffffffffffffffff16610d4c610dae565b73ffffffffffffffffffffffffffffffffffffffff1614610da2576040517f08c379a0000000000000000000000000000000000000000000000000000000008152600401610d9990612f65565b60405180910390fd5b610dac6000611735565b565b6000600a60009054906101000a900473ffffffffffffffffffffffffffffffffffffffff16905090565b606060018054610de79061325b565b80601f0160208091040260200160405190810160405280929190818152602001828054610e139061325b565b8015610e605780601f10610e3557610100808354040283529160200191610e60565b820191906000526020600020905b815481529060010190602001808311610e4357829003601f168201915b5050505050905090565b610e7c610e75611311565b83836117fb565b5050565b610e91610e8b611311565b836113d2565b610ed0576040517f08c379a0000000000000000000000000000000000000000000000000000000008152600401610ec790612fc5565b60405180910390fd5b610edc84848484611968565b50505050565b610eea611311565b73ffffffffffffffffffffffffffffffffffffffff16610f08610dae565b73ffffffffffffffffffffffffffffffffffffffff1614610f5e576040517f08c379a0000000000000000000000000000000000000000000000000000000008152600401610f5590612f65565b60405180910390fd5b600d60009054906101000a900460ff1615600d60006101000a81548160ff021916908315150217905550565b6060610f95826112a5565b610fd4576040517f08c379a0000000000000000000000000000000000000000000000000000000008152600401610fcb90612f85565b60405180910390fd5b6000610fde6119c4565b90506000815111610ffe5760405180602001604052806000815250611029565b8061100884611a56565b604051602001611019929190612cbd565b6040516020818303038152906040525b915050919050565b600c5481565b6000600560008473ffffffffffffffffffffffffffffffffffffffff1673ffffffffffffffffffffffffffffffffffffffff16815260200190815260200160002060008373ffffffffffffffffffffffffffffffffffffffff1673ffffffffffffffffffffffffffffffffffffffff16815260200190815260200160002060009054906101000a900460ff16905092915050565b6110d3611311565b73ffffffffffffffffffffffffffffffffffffffff166110f1610dae565b73ffffffffffffffffffffffffffffffffffffffff1614611147576040517f08c379a000000000000000000000000000000000000000000000000000000000815260040161113e90612f65565b60405180910390fd5b600073ffffffffffffffffffffffffffffffffffffffff168173ffffffffffffffffffffffffffffffffffffffff1614156111b7576040517f08c379a00000000000000000000000000000000000000000000000000000000081526004016111ae90612de5565b60405180910390fd5b6111c081611735565b50565b60007f80ac58cd000000000000000000000000000000000000000000000000000000007bffffffffffffffffffffffffffffffffffffffffffffffffffffffff1916827bffffffffffffffffffffffffffffffffffffffffffffffffffffffff1916148061128e57507f5b5e139f000000000000000000000000000000000000000000000000000000007bffffffffffffffffffffffffffffffffffffffffffffffffffffffff1916827bffffffffffffffffffffffffffffffffffffffffffffffffffffffff1916145b8061129e575061129d82611c03565b5b9050919050565b60008073ffffffffffffffffffffffffffffffffffffffff166002600084815260200190815260200160002060009054906101000a900473ffffffffffffffffffffffffffffffffffffffff1673ffffffffffffffffffffffffffffffffffffffff1614159050919050565b600033905090565b816004600083815260200190815260200160002060006101000a81548173ffffffffffffffffffffffffffffffffffffffff021916908373ffffffffffffffffffffffffffffffffffffffff160217905550808273ffffffffffffffffffffffffffffffffffffffff1661138c83610b36565b73ffffffffffffffffffffffffffffffffffffffff167f8c5be1e5ebec7d5bd14f71427d1e84f3dd0314c0f7b2291e5b200ac8c7c3b92560405160405180910390a45050565b60006113dd826112a5565b61141c576040517f08c379a000000000000000000000000000000000000000000000000000000000815260040161141390612ea5565b60405180910390fd5b600061142783610b36565b90508073ffffffffffffffffffffffffffffffffffffffff168473ffffffffffffffffffffffffffffffffffffffff16148061146957506114688185611037565b5b806114a757508373ffffffffffffffffffffffffffffffffffffffff1661148f84610601565b73ffffffffffffffffffffffffffffffffffffffff16145b91505092915050565b8273ffffffffffffffffffffffffffffffffffffffff166114d082610b36565b73ffffffffffffffffffffffffffffffffffffffff1614611526576040517f08c379a000000000000000000000000000000000000000000000000000000000815260040161151d90612e05565b60405180910390fd5b600073ffffffffffffffffffffffffffffffffffffffff168273ffffffffffffffffffffffffffffffffffffffff161415611596576040517f08c379a000000000000000000000000000000000000000000000000000000000815260040161158d90612e45565b60405180910390fd5b6115a1838383611c6d565b6115ac600082611319565b6001600360008573ffffffffffffffffffffffffffffffffffffffff1673ffffffffffffffffffffffffffffffffffffffff16815260200190815260200160002060008282546115fc9190613171565b925050819055506001600360008473ffffffffffffffffffffffffffffffffffffffff1673ffffffffffffffffffffffffffffffffffffffff168152602001908152602001600020600082825461165391906130ea565b92505081905550816002600083815260200190815260200160002060006101000a81548173ffffffffffffffffffffffffffffffffffffffff021916908373ffffffffffffffffffffffffffffffffffffffff160217905550808273ffffffffffffffffffffffffffffffffffffffff168473ffffffffffffffffffffffffffffffffffffffff167fddf252ad1be2c89b69c2b068fc378daa952ba7f163c4a11628f55a4df523b3ef60405160405180910390a4611712838383611d81565b505050565b611731828260405180602001604052806000815250611d86565b5050565b6000600a60009054906101000a900473ffffffffffffffffffffffffffffffffffffffff16905081600a60006101000a81548173ffffffffffffffffffffffffffffffffffffffff021916908373ffffffffffffffffffffffffffffffffffffffff1602179055508173ffffffffffffffffffffffffffffffffffffffff168173ffffffffffffffffffffffffffffffffffffffff167f8be0079c531659141344cd1fd0a4f28419497f9722a3daafe3b4186f6b6457e060405160405180910390a35050565b8173ffffffffffffffffffffffffffffffffffffffff168373ffffffffffffffffffffffffffffffffffffffff16141561186a576040517f08c379a000000000000000000000000000000000000000000000000000000000815260040161186190612e65565b60405180910390fd5b80600560008573ffffffffffffffffffffffffffffffffffffffff1673ffffffffffffffffffffffffffffffffffffffff16815260200190815260200160002060008473ffffffffffffffffffffffffffffffffffffffff1673ffffffffffffffffffffffffffffffffffffffff16815260200190815260200160002060006101000a81548160ff0219169083151502179055508173ffffffffffffffffffffffffffffffffffffffff168373ffffffffffffffffffffffffffffffffffffffff167f17307eab39ab6107e8899845ad3d59bd9653f200f220920489ca2b5937696c318360405161195b9190612d48565b60405180910390a3505050565b6119738484846114b0565b61197f84848484611de1565b6119be576040517f08c379a00000000000000000000000000000000000000000000000000000000081526004016119b590612da5565b60405180910390fd5b50505050565b6060600e80546119d39061325b565b80601f01602080910402602001604051908101604052809291908181526020018280546119ff9061325b565b8015611a4c5780601f10611a2157610100808354040283529160200191611a4c565b820191906000526020600020905b815481529060010190602001808311611a2f57829003601f168201915b5050505050905090565b60606000821415611a9e576040518060400160405280600181526020017f30000000000000000000000000000000000000000000000000000000000000008152509050611bfe565b600082905060005b60008214611ad0578080611ab9906132be565b915050600a82611ac99190613140565b9150611aa6565b60008167ffffffffffffffff811115611b12577f4e487b7100000000000000000000000000000000000000000000000000000000600052604160045260246000fd5b6040519080825280601f01601f191660200182016040528015611b445781602001600182028036833780820191505090505b5090505b60008514611bf757600182611b5d9190613171565b9150600a85611b6c9190613307565b6030611b7891906130ea565b60f81b818381518110611bb4577f4e487b7100000000000000000000000000000000000000000000000000000000600052603260045260246000fd5b60200101907effffffffffffffffffffffffffffffffffffffffffffffffffffffffffffff1916908160001a905350600a85611bf09190613140565b9450611b48565b8093505050505b919050565b60007f01ffc9a7000000000000000000000000000000000000000000000000000000007bffffffffffffffffffffffffffffffffffffffffffffffffffffffff1916827bffffffffffffffffffffffffffffffffffffffffffffffffffffffff1916149050919050565b611c78838383611f78565b600073ffffffffffffffffffffffffffffffffffffffff168373ffffffffffffffffffffffffffffffffffffffff161415611cbb57611cb681611f7d565b611cfa565b8173ffffffffffffffffffffffffffffffffffffffff168373ffffffffffffffffffffffffffffffffffffffff1614611cf957611cf88382611fc6565b5b5b600073ffffffffffffffffffffffffffffffffffffffff168273ffffffffffffffffffffffffffffffffffffffff161415611d3d57611d3881612133565b611d7c565b8273ffffffffffffffffffffffffffffffffffffffff168273ffffffffffffffffffffffffffffffffffffffff1614611d7b57611d7a8282612276565b5b5b505050565b505050565b611d9083836122f5565b611d9d6000848484611de1565b611ddc576040517f08c379a0000000000000000000000000000000000000000000000000000000008152600401611dd390612da5565b60405180910390fd5b505050565b6000611e028473ffffffffffffffffffffffffffffffffffffffff166124cf565b15611f6b578373ffffffffffffffffffffffffffffffffffffffff1663150b7a02611e2b611311565b8786866040518563ffffffff1660e01b8152600401611e4d9493929190612cfc565b602060405180830381600087803b158015611e6757600080fd5b505af1925050508015611e9857506040513d601f19601f82011682018060405250810190611e95919061289e565b60015b611f1b573d8060008114611ec8576040519150601f19603f3d011682016040523d82523d6000602084013e611ecd565b606091505b50600081511415611f13576040517f08c379a0000000000000000000000000000000000000000000000000000000008152600401611f0a90612da5565b60405180910390fd5b805181602001fd5b63150b7a0260e01b7bffffffffffffffffffffffffffffffffffffffffffffffffffffffff1916817bffffffffffffffffffffffffffffffffffffffffffffffffffffffff191614915050611f70565b600190505b949350505050565b505050565b6008805490506009600083815260200190815260200160002081905550600881908060018154018082558091505060019003906000526020600020016000909190919091505550565b60006001611fd384610c6e565b611fdd9190613171565b90506000600760008481526020019081526020016000205490508181146120c2576000600660008673ffffffffffffffffffffffffffffffffffffffff1673ffffffffffffffffffffffffffffffffffffffff168152602001908152602001600020600084815260200190815260200160002054905080600660008773ffffffffffffffffffffffffffffffffffffffff1673ffffffffffffffffffffffffffffffffffffffff168152602001908152602001600020600084815260200190815260200160002081905550816007600083815260200190815260200160002081905550505b6007600084815260200190815260200160002060009055600660008573ffffffffffffffffffffffffffffffffffffffff1673ffffffffffffffffffffffffffffffffffffffff16815260200190815260200160002060008381526020019081526020016000206000905550505050565b600060016008805490506121479190613171565b905060006009600084815260200190815260200160002054905060006008838154811061219d577f4e487b7100000000000000000000000000000000000000000000000000000000600052603260045260246000fd5b9060005260206000200154905080600883815481106121e5577f4e487b7100000000000000000000000000000000000000000000000000000000600052603260045260246000fd5b90600052602060002001819055508160096000838152602001908152602001600020819055506009600085815260200190815260200160002060009055600880548061225a577f4e487b7100000000000000000000000000000000000000000000000000000000600052603160045260246000fd5b6001900381819060005260206000200160009055905550505050565b600061228183610c6e565b905081600660008573ffffffffffffffffffffffffffffffffffffffff1673ffffffffffffffffffffffffffffffffffffffff168152602001908152602001600020600083815260200190815260200160002081905550806007600084815260200190815260200160002081905550505050565b600073ffffffffffffffffffffffffffffffffffffffff168273ffffffffffffffffffffffffffffffffffffffff161415612365576040517f08c379a000000000000000000000000000000000000000000000000000000000815260040161235c90612f25565b60405180910390fd5b61236e816112a5565b156123ae576040517f08c379a00000000000000000000000000000000000000000000000000000000081526004016123a590612e25565b60405180910390fd5b6123ba60008383611c6d565b6001600360008473ffffffffffffffffffffffffffffffffffffffff1673ffffffffffffffffffffffffffffffffffffffff168152602001908152602001600020600082825461240a91906130ea565b92505081905550816002600083815260200190815260200160002060006101000a81548173ffffffffffffffffffffffffffffffffffffffff021916908373ffffffffffffffffffffffffffffffffffffffff160217905550808273ffffffffffffffffffffffffffffffffffffffff16600073ffffffffffffffffffffffffffffffffffffffff167fddf252ad1be2c89b69c2b068fc378daa952ba7f163c4a11628f55a4df523b3ef60405160405180910390a46124cb60008383611d81565b5050565b6000808273ffffffffffffffffffffffffffffffffffffffff163b119050919050565b8280546124fe9061325b565b90600052602060002090601f0160209004810192826125205760008555612567565b82601f1061253957805160ff1916838001178555612567565b82800160010185558215612567579182015b8281111561256657825182559160200191906001019061254b565b5b5090506125749190612578565b5090565b5b80821115612591576000816000905550600101612579565b5090565b60006125a86125a384613045565b613020565b9050828152602081018484840111156125c057600080fd5b6125cb848285613219565b509392505050565b60006125e66125e184613076565b613020565b9050828152602081018484840111156125fe57600080fd5b612609848285613219565b509392505050565b6000813590506126208161394d565b92915050565b60008135905061263581613964565b92915050565b60008135905061264a8161397b565b92915050565b60008151905061265f8161397b565b92915050565b600082601f83011261267657600080fd5b8135612686848260208601612595565b91505092915050565b600082601f8301126126a057600080fd5b81356126b08482602086016125d3565b91505092915050565b6000813590506126c881613992565b92915050565b6000602082840312156126e057600080fd5b60006126ee84828501612611565b91505092915050565b6000806040838503121561270a57600080fd5b600061271885828601612611565b925050602061272985828601612611565b9150509250929050565b60008060006060848603121561274857600080fd5b600061275686828701612611565b935050602061276786828701612611565b9250506040612778868287016126b9565b9150509250925092565b6000806000806080858703121561279857600080fd5b60006127a687828801612611565b94505060206127b787828801612611565b93505060406127c8878288016126b9565b925050606085013567ffffffffffffffff8111156127e557600080fd5b6127f187828801612665565b91505092959194509250565b6000806040838503121561281057600080fd5b600061281e85828601612611565b925050602061282f85828601612626565b9150509250929050565b6000806040838503121561284c57600080fd5b600061285a85828601612611565b925050602061286b858286016126b9565b9150509250929050565b60006020828403121561288757600080fd5b60006128958482850161263b565b91505092915050565b6000602082840312156128b057600080fd5b60006128be84828501612650565b91505092915050565b6000602082840312156128d957600080fd5b600082013567ffffffffffffffff8111156128f357600080fd5b6128ff8482850161268f565b91505092915050565b60006020828403121561291a57600080fd5b6000612928848285016126b9565b91505092915050565b61293a816131a5565b82525050565b612949816131b7565b82525050565b600061295a826130a7565b61296481856130bd565b9350612974818560208601613228565b61297d816133f4565b840191505092915050565b6000612993826130b2565b61299d81856130ce565b93506129ad818560208601613228565b6129b6816133f4565b840191505092915050565b60006129cc826130b2565b6129d681856130df565b93506129e6818560208601613228565b80840191505092915050565b60006129ff602b836130ce565b9150612a0a82613405565b604082019050919050565b6000612a226032836130ce565b9150612a2d82613454565b604082019050919050565b6000612a456013836130ce565b9150612a50826134a3565b602082019050919050565b6000612a686026836130ce565b9150612a73826134cc565b604082019050919050565b6000612a8b6025836130ce565b9150612a968261351b565b604082019050919050565b6000612aae601c836130ce565b9150612ab98261356a565b602082019050919050565b6000612ad16024836130ce565b9150612adc82613593565b604082019050919050565b6000612af46019836130ce565b9150612aff826135e2565b602082019050919050565b6000612b17600c836130ce565b9150612b228261360b565b602082019050919050565b6000612b3a602c836130ce565b9150612b4582613634565b604082019050919050565b6000612b5d6038836130ce565b9150612b6882613683565b604082019050919050565b6000612b80602a836130ce565b9150612b8b826136d2565b604082019050919050565b6000612ba36029836130ce565b9150612bae82613721565b604082019050919050565b6000612bc66020836130ce565b9150612bd182613770565b602082019050919050565b6000612be9602c836130ce565b9150612bf482613799565b604082019050919050565b6000612c0c6020836130ce565b9150612c17826137e8565b602082019050919050565b6000612c2f602f836130ce565b9150612c3a82613811565b604082019050919050565b6000612c526021836130ce565b9150612c5d82613860565b604082019050919050565b6000612c756031836130ce565b9150612c80826138af565b604082019050919050565b6000612c98602c836130ce565b9150612ca3826138fe565b604082019050919050565b612cb78161320f565b82525050565b6000612cc982856129c1565b9150612cd582846129c1565b91508190509392505050565b6000602082019050612cf66000830184612931565b92915050565b6000608082019050612d116000830187612931565b612d1e6020830186612931565b612d2b6040830185612cae565b8181036060830152612d3d818461294f565b905095945050505050565b6000602082019050612d5d6000830184612940565b92915050565b60006020820190508181036000830152612d7d8184612988565b905092915050565b60006020820190508181036000830152612d9e816129f2565b9050919050565b60006020820190508181036000830152612dbe81612a15565b9050919050565b60006020820190508181036000830152612dde81612a38565b9050919050565b60006020820190508181036000830152612dfe81612a5b565b9050919050565b60006020820190508181036000830152612e1e81612a7e565b9050919050565b60006020820190508181036000830152612e3e81612aa1565b9050919050565b60006020820190508181036000830152612e5e81612ac4565b9050919050565b60006020820190508181036000830152612e7e81612ae7565b9050919050565b60006020820190508181036000830152612e9e81612b0a565b9050919050565b60006020820190508181036000830152612ebe81612b2d565b9050919050565b60006020820190508181036000830152612ede81612b50565b9050919050565b60006020820190508181036000830152612efe81612b73565b9050919050565b60006020820190508181036000830152612f1e81612b96565b9050919050565b60006020820190508181036000830152612f3e81612bb9565b9050919050565b60006020820190508181036000830152612f5e81612bdc565b9050919050565b60006020820190508181036000830152612f7e81612bff565b9050919050565b60006020820190508181036000830152612f9e81612c22565b9050919050565b60006020820190508181036000830152612fbe81612c45565b9050919050565b60006020820190508181036000830152612fde81612c68565b9050919050565b60006020820190508181036000830152612ffe81612c8b565b9050919050565b600060208201905061301a6000830184612cae565b92915050565b600061302a61303b565b9050613036828261328d565b919050565b6000604051905090565b600067ffffffffffffffff8211156130605761305f6133c5565b5b613069826133f4565b9050602081019050919050565b600067ffffffffffffffff821115613091576130906133c5565b5b61309a826133f4565b9050602081019050919050565b600081519050919050565b600081519050919050565b600082825260208201905092915050565b600082825260208201905092915050565b600081905092915050565b60006130f58261320f565b91506131008361320f565b9250827fffffffffffffffffffffffffffffffffffffffffffffffffffffffffffffffff0382111561313557613134613338565b5b828201905092915050565b600061314b8261320f565b91506131568361320f565b92508261316657613165613367565b5b828204905092915050565b600061317c8261320f565b91506131878361320f565b92508282101561319a57613199613338565b5b828203905092915050565b60006131b0826131ef565b9050919050565b60008115159050919050565b60007fffffffff0000000000000000000000000000000000000000000000000000000082169050919050565b600073ffffffffffffffffffffffffffffffffffffffff82169050919050565b6000819050919050565b82818337600083830152505050565b60005b8381101561324657808201518184015260208101905061322b565b83811115613255576000848401525b50505050565b6000600282049050600182168061327357607f821691505b6020821081141561328757613286613396565b5b50919050565b613296826133f4565b810181811067ffffffffffffffff821117156132b5576132b46133c5565b5b80604052505050565b60006132c98261320f565b91507fffffffffffffffffffffffffffffffffffffffffffffffffffffffffffffffff8214156132fc576132fb613338565b5b600182019050919050565b60006133128261320f565b915061331d8361320f565b92508261332d5761332c613367565b5b828206905092915050565b7f4e487b7100000000000000000000000000000000000000000000000000000000600052601160045260246000fd5b7f4e487b7100000000000000000000000000000000000000000000000000000000600052601260045260246000fd5b7f4e487b7100000000000000000000000000000000000000000000000000000000600052602260045260246000fd5b7f4e487b7100000000000000000000000000000000000000000000000000000000600052604160045260246000fd5b6000601f19601f8301169050919050565b7f455243373231456e756d657261626c653a206f776e657220696e646578206f7560008201527f74206f6620626f756e6473000000000000000000000000000000000000000000602082015250565b7f4552433732313a207472616e7366657220746f206e6f6e20455243373231526560008201527f63656976657220696d706c656d656e7465720000000000000000000000000000602082015250565b7f6d696e74696e67206e6f7420656e61626c656400000000000000000000000000600082015250565b7f4f776e61626c653a206e6577206f776e657220697320746865207a65726f206160008201527f6464726573730000000000000000000000000000000000000000000000000000602082015250565b7f4552433732313a207472616e736665722066726f6d20696e636f72726563742060008201527f6f776e6572000000000000000000000000000000000000000000000000000000602082015250565b7f4552433732313a20746f6b656e20616c7265616479206d696e74656400000000600082015250565b7f4552433732313a207472616e7366657220746f20746865207a65726f2061646460008201527f7265737300000000000000000000000000000000000000000000000000000000602082015250565b7f4552433732313a20617070726f766520746f2063616c6c657200000000000000600082015250565b7f6f7574206f662072616e67650000000000000000000000000000000000000000600082015250565b7f4552433732313a206f70657261746f7220717565727920666f72206e6f6e657860008201527f697374656e7420746f6b656e0000000000000000000000000000000000000000602082015250565b7f4552433732313a20617070726f76652063616c6c6572206973206e6f74206f7760008201527f6e6572206e6f7220617070726f76656420666f7220616c6c0000000000000000602082015250565b7f4552433732313a2062616c616e636520717565727920666f7220746865207a6560008201527f726f206164647265737300000000000000000000000000000000000000000000602082015250565b7f4552433732313a206f776e657220717565727920666f72206e6f6e657869737460008201527f656e7420746f6b656e0000000000000000000000000000000000000000000000602082015250565b7f4552433732313a206d696e7420746f20746865207a65726f2061646472657373600082015250565b7f4552433732313a20617070726f76656420717565727920666f72206e6f6e657860008201527f697374656e7420746f6b656e0000000000000000000000000000000000000000602082015250565b7f4f776e61626c653a2063616c6c6572206973206e6f7420746865206f776e6572600082015250565b7f4552433732314d657461646174613a2055524920717565727920666f72206e6f60008201527f6e6578697374656e7420746f6b656e0000000000000000000000000000000000602082015250565b7f4552433732313a20617070726f76616c20746f2063757272656e74206f776e6560008201527f7200000000000000000000000000000000000000000000000000000000000000602082015250565b7f4552433732313a207472616e736665722063616c6c6572206973206e6f74206f60008201527f776e6572206e6f7220617070726f766564000000000000000000000000000000602082015250565b7f455243373231456e756d657261626c653a20676c6f62616c20696e646578206f60008201527f7574206f6620626f756e64730000000000000000000000000000000000000000602082015250565b613956816131a5565b811461396157600080fd5b50565b61396d816131b7565b811461397857600080fd5b50565b613984816131c3565b811461398f57600080fd5b50565b61399b8161320f565b81146139a657600080fd5b5056fea2646970667358221220696dc467d0630daa3a9ca224eb721c903455a4bfae2a4c8f43ab39d3122d4e3564736f6c63430008040033424343204575726f4d6f757365202d2048616c6c6f7765656e2045646974696f6e",
  "linkReferences": {},
  "deployedLinkReferences": {}
}